:020000040800F2
:10000000B08D002401001008092900080D24000803
:100010000D1510081D0500081F191008000000002C
:10002000000000000000000000000000B90200080D
:10003000090210080000000015030008512B0008F9
:100040001B0010081B0010081B0010081B001008E4
:100050001B0010081B0010081B0010081B001008D4
:100060001B0010081B0010081B0010081B001008C4
:100070001B0010081B0010081B0010081B001008B4
:100080001B0010081B0010081B0010081B001008A4
:100090001B0010081B0010081B0010081B00100894
:1000A0001B0010081B0010081B0010081B00100884
:1000B0001B0010081B0010081B0010081B00100874
:1000C0001B0010081B0010081B0010081B00100864
:1000D0001B0010081B0010081B0010081B00100854
:1000E0001B0010081B001008000000001B00100877
:1000F0001B0010081B0010081B0010081B00100834
:10010000210500081B0010081B0010081B00100828
:100110001B0010081B0010081B0010086D2C0008A5
:100120001B0010081B0010081B0010081B00100803
:100130001B0010081B0010081B0010081B001008F3
:1001400000000000000000000000000000000000AF
:100150001B0010081B0010081B0010081B001008D3
:100160001B0010081B0010081B0010081B001008C3
:100170001B0010081B0010081B0010081B001008B3
:100180001B0010081B0010081B0010081B001008A3
:100190001B0010081B0010081B0010081B00100893
:1001A000A11310081B001008610110081B001008A3
:1001B0001B0010081B0010081B0010081B00100873
:1001C0001B0010081B0010081B0010081B00100863
:1001D0001B0010081B0010081B0010081B00100853
:1001E0001B0010081B0010081B0010081B00100843
:1001F0001B0010081B0010081B0010081B00100833
:100200001B0010081B0010081B0010081B00100822
:100210001B0010081B0010081B0010081B00100812
:100220001B0010081B0010081B0010080000000035
:100230001B0010081B001008000000001B00100825
:100240001B0010081B0010081B0010081B001008E2
:100250001B0010081B0010081B0010081B001008D2
:100260001B0010081B0010081B0010081B001008C2
:100270001B0010081B0010081B00100800000000E5
:100280001B0010081B0010081B00100800000000D5
:10029000000000001B001008DFF818D000F02CF957
:1002A00000F0BEF80048004771840008AFF30080FA
:1002B00000F001F9B08D00242C4B19680868B0E8F3
:1002C000F04F80F30988BFF36F8F4FF0000080F389
:1002D000118870470000000008480068006880F33B
:1002E00008884FF0000080F3148862B661B6BFF34F
:1002F0004F8FBFF36F8F00DF00BF00BF08ED00E03E
:10030000DFF80C00016841F470010160704700BF24
:1003100088ED00E0EFF30980BFF36F8F134B1A688D
:100320001EF0100F08BF20ED108A20E9F04F10607A
:1003300009B44FF0500080F31188BFF34F8FBFF323
:100340006F8F06F10FFD4FF0000080F3118809BC9C
:1003500019680868B0E8F04F1EF0100F08BFB0EC45
:10036000108A80F30988BFF36F8F7047380000242C
:10037000EFF3058070472DE9F05F054600209246B7
:100380009B4688460646814640241BE02846414657
:100390004746224600F079F853465A46C01A914122
:1003A00010D311461846224600F060F82D1A67EB6C
:1003B00001084F4622460120002100F057F817EBB4
:1003C00000094E41201EA4F10104DFDC48463146FD
:1003D0002A464346BDE8F09F0649074A086850434D
:1003E00043F2390210440860400870470149086030
:1003F00070470000DC0100246D4EC641D2B201E01E
:1004000000F8012B491EFBD270470022F6E710B519
:1004100013460A4604461946FFF7F0FF204610BD72
:1004200070B5054C054D03E0206820448047241D2D
:10043000AC42F9D170BD000000D5100810D51008ED
:1004400030B50B46014600202022012409E021FAA4
:1004500002F59D4205D303FA02F5491B04FA02F5A1
:100460002844151EA2F10102F1DC30BD202A04DB74
:10047000203A00FA02F1002070479140C2F12003B7
:1004800020FA03F3194390407047202A04DB203AF6
:1004900021FA02F00021704721FA02F3D040C2F1A4
:1004A00020029140084319467047000000487047F9
:1004B000E801002470472DE9F0410646FFF7F6FFFA
:1004C0008046454613E016B1E068B0420ED1206880
:1004D0002860D4E90101D8F800708847204607F069
:1004E00037FFD8F80000B842EBD100E025462C6871
:1004F000002CE8D1BDE8F081064C074D06E0E0682D
:1005000040F0010394E8070098471034AC42F6D35A
:10051000FFF7C6FEF8D4000818D50008FEE7000073
:10052000014800F187BD000004040024F0B5D1E9C2
:100530000843CD690A68C2B10268254322F4F84233
:1005400013431D430560D1E90125D1E903364C6908
:100550002A434568334389691A43EB0B2243DB0383
:100560000A431A4342600020F0BDD1E9012ED1E9CF
:10057000036CD1E9057142EA0E0246EA0C063243E9
:100580003A430A4301682A4322431A436FF30E0198
:100590000A430260E7E770B5D1E90024D1E90231EE
:1005A00005696FF01F06224306EB431343EA41211E
:1005B0000A432A430261002070BD00001CB50022DE
:1005C000030A0192FF248DF8043003238DF80500FF
:1005D00001AA06488DF80610BA21009400F042FAEC
:1005E000002802D002A005F1CBFE1CBD840200242D
:1005F000777269746520726567206F6E6520627915
:100600007465206572726F720D0A000008B500688B
:100610000649884208D10648016841F4002101607A
:10062000006800F40020009008BD0000004C025853
:10063000E0440258F8B504461E461546DDE906308A
:1006400094F86020012A20D06268012784F8607045
:100650004FF0020C84F861C0B2F5802F17D0B2F5CC
:10066000A02F226819D05561324600902046FFF035
:100670007DFD2068016841F40C510160206801682B
:1006800041F0010101600020F8BD0220F8BD2268A0
:100690001162324629460090E8E79562E4E70000DF
:1006A000F0B590F86020012A22D0C1EBC1020127E9
:1006B00080F86070022380F8613000EB8202284DE0
:1006C000138F168EB2F83CC0D46A1B05283244EA58
:1006D000064643EA4C530A2C46EA03060AD0092C84
:1006E00008D0137B46EA036349B10B2C1AD01DE0F6
:1006F0000220F0BDD36803F07F433343F4E7016881
:100700004C6AAC431C434C62016813688B615168AE
:100710000A2901D009291BD1D168026821F07F4143
:10072000916215E0118B0F4D43EA81430168CC695A
:10073000AC431C43CC61016813680B6151680A2902
:1007400001D0092904D1D168026821F07F411162EA
:10075000002180F8617080F860100846F0BD00004C
:100760000F0033FF0F003FFF70B5040011D01B488E
:100770000068C00617D520680168C90703D0204665
:10078000FFF038FE04E0416A890604D5002106E046
:1007900048B1012070BDC069800604D50121204602
:1007A000FFF05AFEF4E7216800253F200D60216824
:1007B000886020680561206885612068C5612068BF
:1007C000456220684563204600F050F8656684F86D
:1007D0006150002084F8605070BD0000D44402587D
:1007E0002DE9F041040004D094F86100002518B10F
:1007F00007E00120BDE8F081204684F86050FFF05A
:10080000EFFE184E022084F861000123D4E90010A5
:10081000D4F81CC040F207120F6840EA0C003740C1
:10082000384308602068A769A168466B394396433E
:10083000314341632068E268016C6FF30F0111439B
:1008400001642068218AA28A466B090541EA425167
:1008500026F4401211434163656684F8613000203C
:10086000C8E70000BFFFF8FF7047000000680649B6
:10087000884207D10548016821F0100101605A2023
:1008800000F1E6B97047000000100052D44402584D
:10089000F0B587B014216846FFF7B7FD214801681D
:1008A00000293DD1012101601F48016841F48051B8
:1008B0000160006802240025694600F4805005901C
:1008C00003264FF683700C278DE8F1001748FFF0E0
:1008D000D7FE48F2371069468DE8F1001448FFF062
:1008E000CFFE4CF2037069468DE8F1001148FFF02D
:1008F000C7FE4FF63F0069468DE8F1000E48FFF055
:10090000BFFE0D2069468DE8F1000C48FFF0B8FEEF
:1009100000220521302000F1ADF9302000F0AAFAC4
:1009200007B0F0BD04000024D4440258001002585F
:1009300000180258000C025800140258000802580F
:100940000AB1816170470904FBE7000001480068B3
:10095000000C70470010005C30B590F84120202A50
:1009600022D190F84020012A1ED0012380F8403087
:10097000242280F84120202400250268136823F0F7
:10098000010313600268136823F4706343EA0121D2
:10099000116001680A6842F001020A6080F8414073
:1009A00080F84050002030BD022030BD70B50400FA
:1009B00004D094F84100002510B106E0012070BD7C
:1009C000204684F8405000F0DFF8242084F84100ED
:1009D0002068016821F001010160D4E9001020F0D5
:1009E000706008612068816821F400418160E068DE
:1009F00021680128A06806D040F404408860E068BF
:100A0000022803D006E040F40040F7E721684FF4E5
:100A10000060486020212068114A43681343436006
:100A20002068C26822F40042C26054F8106B0DCCFA
:100A3000104340EA0320F06054F81C3CD4E9000263
:100A40001043186054F81C0D026842F00102026065
:100A5000656484F84110256384F84250002070BD1D
:100A6000008000022DE9F84F044690F841001F462F
:100A70009046DDF828A08B4620287ED194F84000CF
:100A800001287AD0012084F84000FFF011FF0122F4
:100A9000064619230090D103204601F013FDE0BB68
:100AA0000025212184F84110102084F8420065645B
:100AB0006785618DFF2732484FF00079C4F82480A4
:100AC000FF294FF08078656303D927853A46009067
:100AD00039E0618D218500903AE05946204601F0C9
:100AE000DBFC13E000F133FCB8B9606A21680078E0
:100AF0008862606A401C6062608D401E6085208D47
:100B0000401E80B22085618D01B168B1608D324692
:100B1000514600282046E5D100E002E000F1F0FB5C
:100B2000D0B10120BDE8F88F002253468021204635
:100B3000009601F0C7FC0028F3D1608DFF2804D98E
:100B400027853A4600954346C7E7608D2085009586
:100B50004B4694F82820C0E720682021094AC1614B
:100B6000206843681340436084F8411084F8425081
:100B7000002084F84050D5E7FFE70220D2E70000CC
:100B80000020008000E800FE10B586B00446142165
:100B90006846FFF73AFC1349206888421FD1124883
:100BA000016841F08001016000680423302100F0F9
:100BB000800005900020009112226946CDE90120B5
:100BC000CDE903030948FFF05BFD074808300168E1
:100BD00041F480010160006800F48000059006B0D7
:100BE00010BD000000580040E0440258001C0258AC
:100BF0000248816802781144816070472400002413
:100C0000032010B500F156F800F014FF0F4A104908
:100C100014681368C4F3032203F00F038A5CC95CF1
:100C200002F01F0201F01F01D0400A4A20FA01F130
:100C30001160094908600020FFF0FEFE08B10120A4
:100C400010BDFFF0F3FF002010BD00001844025853
:100C50005074100834000024300000242DE9F041C5
:100C6000044690F8A00016460F4601281DD0012525
:100C700084F8A050022084F8A10006EB860000EB67
:100C8000C600342204EB80003830FFF0CBF9324646
:100C90003946204601F043FC216800204D6284F86B
:100CA000A15084F8A000BDE8F0810220FBE7704766
:100CB0002DE9F041040004D094F8A100002518B1FA
:100CC00007E00120BDE8F081204684F8A05000F044
:100CD0006BF83448022184F8A110012202CC8B6900
:100CE00023F070438B6194E84A001943E3681E4384
:100CF00054F8043D31439E693143996121688B6802
:100D000003408B602168A68AA7698B683B4343EA4E
:100D100006438B602168CB680340CB602168A38BBE
:100D2000276ACE683E4346EA0346CE6021680B69D7
:100D300003400B612368A68CA76A1969394341EA0D
:100D40000641196121684B6903404B612068A38DFE
:100D5000266B4169314341EA03414161236894F8BC
:100D6000351094F83600DE6A000406F07F46DE6235
:100D7000236840EA012094F83460D96A3143014382
:100D8000D9622068416B41F00601416320688169A6
:100D900041F001018161C4F8A45084F8A120002031
:100DA00090E7000000F800F070B586B0044614210A
:100DB0006846FFF72AFB2A49206888424DD1294816
:100DC000016841F008010160006800F0080005902A
:100DD0002448001F016841F480610160016801F44A
:100DE00080610591016841F400710160016801F4BE
:100DF00000710591016841F4807101600068002470
:100E00000E26694600F480700590FF2000900225B0
:100E10001548CDE90154CDE90346FFF031FC4FF60A
:100E2000FF700090CDE9015410486946CDE90346B2
:100E3000FFF026FC4FF470400090CDE901540C48BF
:100E40006946CDE90346FFF01BFC0022052158202E
:100E5000FFF010FF582000F00DF806B070BD000044
:100E600000100050E44402580028025800240258A0
:100E700000200258002809DB410900F01F02890008
:100E8000012001F1E0219040C1F80001704700000D
:100E900010B500F09BFD05490968054AC1F3021130
:100EA000515C01F01F01C84010BD000020440258F1
:100EB000507410082DE9FC5F044650F8241B0025EF
:100EC00000902E460801FE4FDFF8F8831DD5606EB6
:100ED00050B1B0F5801F0CD0B0F5001F0ED0B0F5AA
:100EE000401F1DD001250FE0386840F40030386005
:100EF00016E00221201D00F10BFB03E00098022107
:100F000001F004FD05000BD02E462088C00523D536
:100F1000606D05281ED2DFE800F00C11161B1B00C7
:100F2000626ED8F8001021F440111143C8F8001087
:100F3000EBE7386840F40030386009E00021201DFC
:100F400000F1E6FA03E00098002101F0DFFC05461D
:100F50006DB100E001252E462088800528D5A06DC2
:100F600080281ED00CDC90B140280ED114E0626DB8
:100F7000D8F8001021F007011143C8F80010EBE782
:100F8000C02813D0B0F5807F10D001250FE038685D
:100F900040F40030386009E00021201D00F1B8FA6B
:100FA00003E00098002101F0B1FC054695B12E4602
:100FB0002088DFF81093400509F108092CD5D4F8F2
:100FC000A400B0F5800F20D00DDCA0B1B0F5001F5B
:100FD0000FD115E0A26DD8F8001021F4E071114393
:100FE000C8F80010E4E7B0F5C00F13D0B0F5000F5B
:100FF00010D001250FE0386840F40030386009E077
:101000000021201D00F184FA03E00098002101F086
:101010007DFC054675B12E46208800052DD5D4F8F7
:10102000A800B0F1007F21D00EDCA8B1B0F1807F24
:1010300010D116E0D4F8A420D9F8001021F46001F2
:101040001143C9F80010E7E7B0F1407F13D0B0F1C9
:10105000806F10D001250FE0386840F40030386010
:1010600009E00021201D00F153FA03E0009800215F
:1010700001F04CFC05466DB12E46206880011FD55D
:10108000A06CD8B110280FD0202812D0302815D04D
:10109000012514E0D4F8A820D9F8001021F0E0616F
:1010A0001143C9F80010E8E7386840F400303860B0
:1010B00004E00221201D00F12BFA05466DB12E46F9
:1010C0002088C0042BD5E06DB0F5005F20D00DDC8A
:1010D000A0B1B0F5805F0FD115E07A48A26C001F77
:1010E000016821F0300111430160E9E7B0F5405F8C
:1010F00013D0B0F5804F10D001250FE0386840F4D0
:101100000030386009E00021201D00F101FA03E001
:101110000098002101F0FAFB054685B12E46208893
:10112000800429D5206EB0F5403F23D010DC08B3F1
:10113000B0F5803F14D0B0F5003F0FD115E0E26D5F
:10114000D8F8001021F4E0411143C8F80010E6E798
:10115000B0F5802F0ED0B0F5A02F0BD001250AE0FE
:101160000121201D00F1D4F903E00098012101F0D4
:10117000CDFB05468DB12E46208840042AD5D4F8F3
:10118000AC00B0F1405F23D010DC08B3B0F1805F59
:1011900014D0B0F1005F0FD115E0226ED8F8001026
:1011A00021F4E0211143C8F80010E5E7B0F1804FC9
:1011B0000ED0B0F1A04F0BD001250AE00121201D77
:1011C00000F1A6F903E00098012101F09FFB05461C
:1011D0006DB12E46208800041FD5E06ED8B1B0F165
:1011E000805F0ED0B0F1005F10D0012514E0D4F87C
:1011F000AC20D9F8001021F0E0411143C9F80010EB
:10120000E8E7386840F40030386004E00121201D30
:1012100000F17EF905466DB12E462068C0011ED54D
:10122000606CD0B101280ED0022811D0032814D050
:10123000012513E0E26ED8F8001021F0405111436F
:10124000C8F80010E9E7386840F40030386004E07E
:101250000221201D00F15CF9054685B12E4620686B
:10126000DFF85CB04002ABF11C0B57D516480168A3
:1012700041F480710160FFF01BFB82460EE01148D3
:10128000626C001F016821F0030111430160E6E771
:10129000FFF00EFBA0EB0A0064283DD80A48006866
:1012A000C005F5D57DBBDFF81CA0B4F8B0100AF17D
:1012B000200ADAF8000001F4407100F4407005E003
:1012C0002C4402585044025800480258884211D019
:1012D000DAF80010DAF8002021F4407142F480328C
:1012E000CAF80020DAF8002022F48032CAF8002080
:1012F000CAF80010D4F8B000B0F5807F21D1FFF01B
:10130000D7FA019019E008E0FFF0D2FA0199411AEA
:1013100041F28830814210D903252E462078DFF82B
:1013200030A4C0073DD0A06F182838D026DC80B389
:10133000082829D0102825D12CE0DAF800008007F1
:10134000E2D5D4F8B010C1F30120032858460DD0DF
:10135000016821F47C510160B4F8B020DAF8001083
:10136000C2F30B021143CAF80010D7E7F94A036829
:1013700002EA111223F47C511143ECE720280ED02D
:1013800028280CD001250BE00121201D00F1C0F818
:1013900004E004E00098012101F0B8FA05465DB1CF
:1013A0002E46207880071ED5606F062819D2DFE808
:1013B00000F0160C11161616A26FDAF8001021F0C4
:1013C00038011143CAF80010EBE70121201D00F19C
:1013D0009FF803E00098012101F098FA054675B1E5
:1013E00000E001252E46207840071FD5D4F8900054
:1013F000062819D2DFE800F0160C11161616626FD7
:10140000DAF8001021F007011143CAF80010EAE7EA
:101410000121201D00F17CF803E00098012101F07A
:1014200075FA05469DB100E001252E46207880061C
:101430002BD5D4F88C00B0F1405F24D011DC10B370
:10144000B0F1805F15D0B0F1005F10D116E0D4F894
:101450009020D9F8001021F007011143C9F80010BD
:10146000E4E7B0F1804F0ED0B0F1A04F0BD00125D2
:101470000AE00021201D00F14BF803E00098022152
:1014800001F044FA05468DB12E46207840062BD552
:10149000D4F89800B0F5406F24D011DC10B3B0F54B
:1014A000806F15D0B0F5006F10D116E0D4F88C2005
:1014B000DAF8001021F0E0411143CAF80010E4E727
:1014C000B0F5805F0ED0B0F5A05F0BD001250AE02B
:1014D0000021201D00F11CF803E00098022101F01A
:1014E00015FA05468DB12E46207800062BD5D4F886
:1014F0009C00B0F5C04F24D011DC10B3B0F5005FF4
:1015000015D0B0F5804F10D116E0D4F89820D9F856
:10151000001021F4E0511143C9F80010E4E7B0F5E0
:10152000004F0ED0B0F5204F0BD001250AE000216E
:10153000201DFFF0EDFF03E00098022101F0E6F925
:1015400005464DB12E46207800071ED5D4F8800000
:10155000B0F5805F0AD00FE0D4F89C20D9F80010D5
:1015600021F460411143C9F80010ECE70098022112
:1015700001F0CCF900B10126D4F88020DAF800108F
:1015800021F440511143CAF800102078C00613D549
:10159000D4F89400B0F5807F05D10098022101F0C5
:1015A000B5F900B10126D4F89420D9F8001021F43F
:1015B00040711143C9F800102068000316D5D4F813
:1015C000A00038B1B0F5803F09D0B0F5003F0BD096
:1015D00001250AE00021201DFFF09AFF03E000989A
:1015E000022101F093F9054685B12E46206840039B
:1015F00022D5D4F88400B0F5801F11D0B0F5001FBB
:1016000013D0B0F5401F15D0012514E0D4F8A02068
:10161000D9F8001021F440311143C9F80010E5E772
:10162000386840F40030386004E00098012101F08F
:101630006DF9054655B12E462068C0031CD5E06CF7
:1016400070B1B0F5803F10D0012514E0D4F88420AB
:10165000DAF8001021F440111143CAF80010EBE74A
:10166000386840F40030386004E00221201DFFF0AB
:101670004FFF0546CDB12E462068800005D5009865
:10168000022101F043F900B10126206880031BD537
:10169000E06FB8B1B0F5807F10D0B0F5007F11D009
:1016A000B0F5407F0ED001250DE02948E26C0838E6
:1016B000016821F4803111430160DDE7386840F4AE
:1016C00000303860F5B32E462068C00207D5226F7F
:1016D000D8F8001021F000411143C8F8001020682C
:1016E000C00008D5D4F8B420DBF8001021F4804104
:1016F0001143CBF800102068800207D5A26ED8F8FD
:10170000001021F080711143C8F8001020684000DB
:101710000CD5DBF8001021F40041CBF80010DBF809
:101720000010D4F8B8201143CBF80010206800282E
:1017300007DA0748226D0838016821F0405111434B
:10174000016000E008E086B10120BDE8FC9F0000D8
:1017500054440258CFFFFF00E26FDAF8001021F482
:1017600040711143CAF80010AEE70020EDE7000019
:101770002DE9F05F04000F467ED0DFF83882D8F8FC
:10178000000000F00F00B8420CD2D8F8001021F091
:101790000F013943C8F80010D8F8000000F00F001E
:1017A000B84269D12078844D40070AD5206929685C
:1017B00001F07001884204D9296821F070010143C9
:1017C000296020787C4E361D00070AD56069316893
:1017D00001F07001884204D9316821F070010143A1
:1017E00031602078C0060AD5A069316801F4E06153
:1017F000884204D9316821F4E061014331602078E6
:10180000DFF8B4B180060BF1080B0CD5E16958463E
:10181000DBF8002002F07002914204D9026822F045
:1018200070020A430260207880070AD5E0682968C0
:1018300001F00F01884204D9296821F00F0101430A
:1018400029602078C0073ED05B49A2682868183913
:1018500020F47060104328606068022818D00328C4
:1018600019D00968012819D0490700294ADADFF898
:1018700048A1AAF1080A00E044E0DAF8002022F0CA
:1018800007020243CAF80020FFF012F8814612E076
:1018900009688903E9E709688901E6E7C905E4E71A
:1018A000FFF006F8A0EB090141F28830814202D92D
:1018B0000320BDE8F09F6168DAF8000000F038000E
:1018C000B0EBC10FECD1207880070AD5E068296819
:1018D00001F00F01884204D2296821F00F01014371
:1018E0002960D8F80010404601F00F01B9420BD929
:1018F000016821F00F0139430160006800F00F001A
:10190000B84201D00120D4E7207840070AD52069E9
:10191000296801F07001884204D2296821F0700121
:1019200001432960207800070AD56069316801F019
:101930007001884204D2316821F0700101433160A6
:101940002078C0060AD5A069316801F4E0618842B8
:1019500004D2316821F4E0610143316020788006CF
:101960000CD5E1695846DBF8002002F07002914284
:1019700004D2026822F070020A43026000F05AF8B2
:101980000E492A682B68C2F3032203F00F038A5C16
:10199000C95C02F01F0201F01F01D040084A20FA82
:1019A00001F111600749086007480068BDE8F05F71
:1019B000FFF042B80020005218440258507410083A
:1019C00034000024300000242800002430B500F04A
:1019D00031F80B4A0B490C4B15681468C5F3032208
:1019E00004F00F048A5C095D02F01F0201F01F0180
:1019F000D040064A20FA01F119601060084630BD57
:101A00001844025850741008340000243000002498
:101A100000B5FFF7DBFF05490968054AC1F302116C
:101A2000515C01F01F01C84000BD00001C44025879
:101A300050741008454970B545480968434B103B40
:101A400011F0380208D00111082A03D0102A0BD057
:101A5000182A0BD0084670BD19688906FBD519688D
:101A6000C1F3C101C84070BD3A4870BD3749374D18
:101A700018310C1D24350A68096826682D6802F0A3
:101A8000030406F00102C1F30511C5F3CC0515FBF3
:101A900002F200EE102AB8EE400AE9B32F4ADFED59
:101AA0002E0AB7EE001A6CB1DFED2D1A012C01D011
:101AB000022C43D002EE101A1068F8EE422A81EE92
:101AC000A22A1EE01C68A40611D51B6801EE901A1C
:101AD0001168C3F3C103F8EE612AD84001EE900A01
:101AE000C1F30800F8EE611A81EEA22A0BE001EEC4
:101AF000901ADFED1C2A00BFF8EE611A106882EE22
:101B0000A12AC0F3080001EE900AF8EE611A40EE37
:101B1000201A31EE810A00E015E022EE000A10687A
:101B2000C0F34620401C00EE900AF8EE600A80EEFA
:101B3000201ABCEEC10A10EE100A70BD01EE901A18
:101B4000DFED092AD8E7002070BD000010440258DC
:101B50000090D00340787D010000003930440258E5
:101B60000024744A0024744C20BCBE4B2DE9F05F65
:101B700004007CD0FF4F2078FE4D1837DFF8F49337
:101B8000103DC00748D0D9F80000396800F038008F
:101B9000102815D0182803D101F0030002280FD017
:101BA0006068B0F5803F12D010B1B0F5A02F18D00A
:101BB000286820F480302860286820F4802009E01C
:101BC0002868800328D560680028D2D024E02868DF
:101BD00040F480302860606888B1FEF069FE0646F7
:101BE00009E0286840F480202860F0E7FEF060FEFD
:101BF000801B64287ED828688003F7D50CE0FEF0AF
:101C000057FE064605E000BFFEF052FE801B64282A
:101C1000F0D828688003F7D4207841F20308D54E25
:101C20000C3E800753D5D9F80000396810F0380011
:101C30000ED0182801D188070AD0E068A8B3296817
:101C400021F0190101432960FEF032FE82461BE0BB
:101C50002868400702D5E06800288AD0FEF776FEA3
:101C600040451BD82069402812D0316800E0CCE004
:101C700021F47C3141EA0030306028E0FEF018FEAB
:101C8000A0EB0A000228B5D828684007F6D5E5E79A
:101C9000306820F47C3040F40030EDE7207C31687F
:101CA00021F0FE4141EA0060E6E7FFE7286820F006
:101CB00001002860FEF0FCFD824605E0FEF0F8FD24
:101CC000A0EB0A00022895D828684007F6D42078AF
:101CD000C0065FD5D9F80000DFF898B2396800F087
:101CE0003800ABF1040B082812D0182805D101F0F8
:101CF000030000E0EAE001280AD0E0690028286833
:101D000038D040F080002860FEF0D2FD824623E00B
:101D10002868C00523D5E069802876D11FE0206AB5
:101D2000202821D0316821F0F84141EA80603060FC
:101D300030E000BF94F82010DBF8002022F07C5245
:101D400042EA0161CBF8001024E000BFFEF0B0FDD4
:101D5000A0EB0A00022896D82868C005F6D5FEF741
:101D6000F5FD4045E6D8DAE7306820F0F84040F06D
:101D70008040DCE720F080002860FEF099FD0646F8
:101D800005E000BFFEF094FD801B02289BD8286868
:101D9000C005F7D42078000729D5764861696430FA
:101DA00000298046016811D041F001010160FEF078
:101DB0007FFD064605E000BFFEF07AFD801B02288D
:101DC000C9D8D8F800008007F6D510E021F001014D
:101DD0000160FEF06DFD064605E000BFFEF068FD07
:101DE000801B022872D8D8F800008007F6D420782B
:101DF000800623D5A0690028286810D040F48050C0
:101E00002860FEF055FD064605E02CE1FEF050FD91
:101E1000801B02285AD828688004F7D50EE020F4E9
:101E200080502860FEF044FD064604E0FEF040FDD0
:101E3000801B02284AD828688004F7D420784007FD
:101E40004FD5DFF83481D8F8001041F48071C8F81C
:101E50000010FEF02DFD064605E000BFFEF028FD57
:101E6000801B642832D8D8F80000C005F6D5414E52
:101E7000A068603601280AD008B1052813D0306860
:101E800020F001003060306820F0040002E030688B
:101E900040F001003060A06841F2883A90B1FEF055
:101EA00007FD80460AE0306840F004003060EEE74D
:101EB000FEF0FEFCA0EB0801514507D83068800712
:101EC000F6D50EE0FEF0F4FC804607E084E000BFAB
:101ED000FEF0EEFCA0EB080151457DD8306880078C
:101EE000F6D4606AF0B3DFF88C80D9F8001008F1FE
:101EF0002008C1F3C20103296FD00228286820F00E
:101F00008070286003D0FEF0D3FC044680E0FEF031
:101F1000CFFC064605E000BFFEF0CAFC801B02288D
:101F200073D828688001F7D4E26A40F2F331386848
:101F300054F8283F884340EA021018433860217B58
:101F40004FF4FE0C22894FF0FE47208A4902267D7D
:101F5000521E401EA1F5007189B20CEA0040C2F386
:101F6000080200E081E01143761E0143014807EAC0
:101F7000066203E010440258004802581C30114326
:101F80003B4AC8F80010016821F0010101601168A6
:101F90004FF6F876236AB14341EAC3011160016844
:101FA000A26921F00C01114301600168E26921F08E
:101FB000020111430160016841F480310160016850
:101FC00041F400310160016841F480210160016841
:101FD00041F00101016001E017E01DE0286840F0D8
:101FE00080702860FEF064FC044604E0FEF060FCB3
:101FF000001B022809D828688001F7D535E000BF0A
:10200000FEF056FC001B022802D90320BDE8F09F19
:1020100028688001F4D428E039680128D8F8000045
:1020200021D0A26A01F0030393421CD1E26AC1F3FA
:1020300005118A4217D1216BC0F30802491E8A425A
:1020400011D1616BC0F34622491E91420BD1A16BA5
:10205000C0F30642491E914205D1E16BC0F3066010
:10206000491E814201D00120D0E70020CEE70000C8
:102070003444025870B504000D4603D094F82C0087
:1020800010B107E0012070BD002084F82D0020462B
:1020900000F018F8022084F82C002068211DFEF7BB
:1020A00045FAD4E900022946FEF0B8F804480121B7
:1020B000026842F00042026084F82C10002070BDDB
:1020C00000400052FEF7E4BB70B5044690F82C00C7
:1020D0000D46022804D0012803D0052801D0012094
:1020E00070BD022084F82C002068FEF754FA28689E
:1020F000022805D05FF0010084F82C00002070BD9C
:102100000520F9E77047704790F83D10012901D08C
:10211000012070470B4A022180F83D100168CB680E
:1021200043F00103CB60006881681140062906D0A6
:10213000B1F5803F03D0016841F00101016000204A
:10214000704700000700010070B5044600680025D4
:102150000169C943890715D4C168C943890711D4E6
:10216000EA1E0261012121772068806980072046EC
:1021700002D0FEF0B9FF04E000F0A7F82046FEF020
:10218000B4FF257720680169C943490717D4C1689E
:10219000C943490713D402216FF004020261217779
:1021A0002068806910F4407F204602D0FEF09CFF3A
:1021B00004E000F08AF82046FEF097FF25772068BB
:1021C0000169C943090716D4C168C943090712D474
:1021D00004216FF00802026121772068C06980073E
:1021E000204602D0FEF080FF04E000F06EF82046AA
:1021F000FEF07BFF257720680169C943C90617D423
:10220000C168C943C90613D408216FF010020261E6
:1022100021772068C06910F4407F204602D0FEF08C
:1022200063FF04E000F051F82046FEF05EFF2577E2
:1022300020680169C943C90708D1C168C943C907F2
:1022400004D1891E0161204600F040F82068016930
:10225000C943090609D4C168C943090605D46FF00A
:10226000800101612046FFF74DFF20680169C943E5
:10227000C90509D4C168C943090605D46FF4807142
:1022800001612046FEF0FDFE20680169C943490650
:1022900009D4C168C943490605D46FF04001016102
:1022A000204600F01DF820680169C94389060BD457
:1022B000C168C943890607D46FF020010161204637
:1022C000BDE87040FEF0DEBE70BD70470068034997
:1022D000884201D1FEF78CBC70470000001400401A
:1022E000704770B5044690F87C0001281DD001228B
:1022F00084F87C202420C4F88000206805680268E7
:1023000022F0010202602068826822F060620A43C3
:1023100082602046FFF0A2FA22682021002015608A
:10232000C4F8801084F87C0070BD022070BD70B5C8
:10233000044690F87C0001281DD0012284F87C20FE
:102340002420C4F8800020680568026822F0010299
:1023500002602068826822F060420A438260204660
:10236000FFF07CFA2268202100201560C4F880105C
:1023700084F87C0070BD022070BD000070B586B08E
:10238000044614216846FEF740F81C49206888423C
:1023900031D11B48016841F480110160006800F4EC
:1023A0008010059016480838016841F0040101606A
:1023B000016801F004010591016841F00801016024
:1023C000006802250024694600F0080005900826F0
:1023D000E8020090CDE901540A48CDE90346FEF039
:1023E0004FF904200090CDE9015407486946CDE932
:1023F0000346FEF045F906B070BD000000500040F5
:10240000E844025800080258000C0258FEE7000099
:102410002DE9F0410446006890460E468069C043AD
:10242000C00635D40025202720688069C043800677
:1024300016D5701CF8D0FEF03BFAA0EB0800B042B5
:1024400001D8002EF0D1606C84F8405040F020009C
:10245000606484F8417084F842500120BDE8F08146
:1024600021681020C8612068C7612046FEF0F2FE96
:102470002068084942680A404260606C40F00400ED
:10248000606484F8417084F8425084F84050E4E776
:102490000020E3E700E800FE70B50068C1F3090121
:1024A000074E41EA0241049C4FF48065426819439B
:1024B00005EA54553543AA4321430A43426070BD9F
:1024C000FF63FF032DE9F0411D4617460E46044603
:1024D000DDF8188008E0681C06D0FEF0E9F9A0EBF2
:1024E0000800A8420BD855B12068806936EA000080
:1024F00013D00020B842EED00020BDE8F081626C1D
:10250000002084F84000202142F02002626484F818
:10251000411084F842000120EFE70120EAE72DE9AD
:10252000FE4F81460068882493468D888C2204EBF8
:10253000CB178A46C3689421BE46C459C3F30B43E4
:102540002B4404F470441F04019702EBCB1240F8B3
:102550000E4001EBCB13DAF800709C214FF0AC0C6D
:1025600001EBCB1440F2077102910CEBCB11D9F8BF
:1025700000C098250020CDF800C0A02605EBCB15A3
:10258000DCF80CC006EBCB16CCF30B4C0CF1010CB9
:1025900007EB0C08DDF800C0019F48EA07084CF87B
:1025A0000E80D9F80070BAF80CC0B846FF68C7F3BF
:1025B0000A0767444FEA074E58F8027007F4704C58
:1025C00048F802C0D9F800C0DAF80870DCF80C80CE
:1025D000C8F30A0808F10108B84448EA0E084CF8A4
:1025E0000280D9F80020D75827F00707D750D9F82C
:1025F0000070DAF81020FA509AF831209AF8183062
:102600004FEA022C9AF83220120442EA0362D9F807
:1026100000301F5918519AF8303043EA0C03134325
:10262000D9F800201351D9F80020535923F0FF03A3
:102630005351D9F80020DAF814305351D9F800205A
:102640009359029CA3439351D9F80030DAE9072447
:1026500022439A51D9F8002053585050D9F80020FD
:10266000DAF824005050DAF81000C8B301283AD044
:1026700004283AD0022838D0032836D0072834D08E
:102680000120D9F80030B02505EBCB11B422842409
:102690005D5802EBCB1205F0E0255D50DAE900351C
:1026A00004EBCB14EB1ABAF8285043434543D9F84E
:1026B0000000DB1D43EA05434350D9F80000815870
:1026C0006FF30A018150D9F80000DAF82C1081501C
:1026D000D9F80000015941F001010151BDE8FE8F18
:1026E000FFE70420CDE70320CBE70220C9E7000085
:1026F000104801220E4B002110B50360C0E9011201
:10270000C1608161C161C0E91112C16401654165A7
:102710008165C165FEF764F808B172B6FEE7054849
:102720000121FDF7BDFF002801D072B6FEE710BD04
:10273000001000521C020024F0B587B01C2168462E
:10274000FDF763FE164801260022144D02214FF0CA
:10275000100C082705604FF4C075C0E90126C7605A
:1027600040248E02C0F810C00F03C0E90545C0E93F
:10277000072607230424C0E909278DE81A0003254A
:102780000393CDE9045106916946FFF773FC0028D5
:1027900001D072B6FEE707B0F0BD00004041005224
:1027A000040400241248002110B5104C0123114AE2
:1027B0000460C0E90121C0E9033141618161C16167
:1027C0000162FEF7F3F808B172B6FEE7084800218F
:1027D000FEF074F808B172B6FEE705480021FEF776
:1027E000BBF8002801D072B6FEE710BD00580040CB
:1027F00084020024B1757030F0B58DB03421684684
:10280000FDF703FE25480024234A2E2100F11C0E6B
:1028100040F24E334FF4FC7640F2763702601822D5
:10282000446040F2022C84600125C46004618EE89B
:10283000CE10C0E9054580F8344080F8354080F876
:102840003640FEF735FA08B172B6FEE74FF448702D
:1028500004954FF4F071FF22CDE90040CDE902412B
:10286000CDE9052405260994CDE90A014FF48063DA
:102870000A48CDE907368DF8304000228DF8314006
:1028800069468DF83240FEF7E9F9002801D072B6AA
:10289000FEE70DB0F0BD000000100050D002002493
:1028A00005F0E6BF1748002110B5154C0C224FF477
:1028B000E1330460C0E90131C160C0E90412816103
:1028C000C161016241628162FEF030FC08B172B602
:1028D000FEE70C480021FFF72AFD08B172B6FEE7BB
:1028E00008480021FFF7FDFC08B172B6FEE7054875
:1028F000FEF0FCFB002801D072B6FEE710BD000020
:102900000050004078030024FEE700002DE9F04766
:10291000454D044689464FF0000A2868C0438007A9
:102920000AD0414E283E306820F080503060FDF0E3
:10293000BFFF0746B04608E00120BDE8F08700BFB2
:10294000FDF0B6FFC01B022867D8D8F80000800051
:10295000F6D4208829684FF4FE0721F07C713E02EE
:1029600041EA00502860207AA389B4F804C04002EC
:102970002D4D2D495B1E227CACF1010C1835091D33
:10298000A0F5007080B2521ECCF3080C07EA034396
:1029900040EA0C00184306EA026210432860086807
:1029A000626920F44060104308600A68A06922F45C
:1029B000007202430A60281D0A6822F480720A60CD
:1029C00002684FF6F873E4699A4342EAC40202606F
:1029D0000868B9F1000F40F480720A6011D00868ED
:1029E000B9F1010F11D040F080700860D8F80000F4
:1029F000444640F08050C8F80000FDF059FF0546FD
:102A00000DE0086840F48000EFE740F40000ECE7D8
:102A1000FDF04EFF401B022801D903208DE72068FE
:102A20008000F5D5504688E728440258F0B587B0B5
:102A300014216846FDF7E9FC1E48016841F4805105
:102A40000160006802240025694600F4805005906A
:102A5000032648F237100C278DE8F1001648FDF0E8
:102A60000FFE4CF2037069468DE8F1001348FDF04B
:102A700007FE4FF63F0069468DE8F1001048FDF073
:102A8000FFFD0D2069468DE8F1000E48FDF0F8FDD0
:102A90004FF6807069468DE8F1000B48FDF0F0FDBF
:102AA000002205213020FEF0E5F83020FEF7E2F9A3
:102AB00007B0F0BDD444025800180258000C025868
:102AC0000014025800080258001002582DE9F8437B
:102AD0001C4C102600274FF6FF7901251A484A465C
:102AE0002146C4E90056C4E90257FFF7EDFA17483A
:102AF0000090401E0090FCD102211348C4E900164A
:102B00001049B846C4E902574A46FFF7DDFA0427E0
:102B10000D4803214A4684E8C2010A49FFF7D4FA66
:102B200040F2312007494A46C4E902500648C4E948
:102B30000076FFF7C9FABDE8F84303484FF44E7139
:102B4000FEF087BAD806002404040024A086010001
:102B5000502010B580F31188BFF34F8FBFF36F8FF4
:102B600004F134FB18B104494FF080500860002094
:102B700080F3118810BD000004ED00E0F0B5CBB08B
:102B80004C212FA8FDF741FC202142A8FDF73DFC78
:102B9000BC216846FDF739FC0220FEF09DF82F4865
:102BA00000242F49026842F44042026002680A6829
:102BB00042F001020A60096801F001014A910168CE
:102BC0008904FCD527480225016801220826130440
:102BD000052721F00301891C01603895C020CDE94B
:102BE0003957CDE93B053D952FA83E95CDE93F648A
:102BF0004194CDE92F23FEF7B9FF08B172B6FEE785
:102C00004020449403270201CDE945603F21CDE9EE
:102C10004702CDE942170421499042A8FEF7A8FDDA
:102C200008B172B6FEE71048332100901922CDE9B1
:102C30000A150DA909974FF440630C95684681E881
:102C40001C00119410941D942094FEF733F9002871
:102C500001D072B6FEE74BB0F0BD00001848025834
:102C60002C040058284402580A0000210148FFF7AC
:102C70006BBA00008C06002490F82810C90706D013
:102C80000168C36A4A6822F400321A434A6090F825
:102C90002810890706D50168036B4A6822F4803240
:102CA0001A434A6090F82810490706D50168436B1B
:102CB0004A6822F480221A434A6090F828100907D3
:102CC00006D50168836B4A6822F400421A434A60C1
:102CD00090F82810C90606D50168C36B8A6822F4EB
:102CE00080521A438A6090F82810890606D5016838
:102CF000036C8A6822F400521A438A6090F8281004
:102D0000490611D50168436C4A6822F480121A43BF
:102D10004A60416CB1F5801F06D10168836C4A6836
:102D200022F4C0021A434A6090F82810090606D51A
:102D30000168C26C486820F4002010434860704766
:102D40002DE9F04304468068D94F87B02268D4E962
:102D50000465E369616E304316681D432843D54B13
:102D6000002501433E400E4316602068E26841683A
:102D700021F44051114341602268A1699A4201D077
:102D8000206A01439668DFF830C3CC4FCC4806EA8E
:102D90000C060E4396602168666ACA6A22F00F022A
:102DA0003243CA622268BA420ED1006800F038008D
:102DB000182873D047DCB8B3082879D010286FD111
:102DC00078E028287ED17BE0BE498A4209D100689C
:102DD00000F00700062875D2DFE800F0546A6C6E38
:102DE0007072B9498A4209D1006800F007000628CC
:102DF00068D2DFE800F0475D5F616365B3498A42EE
:102E000009D1006800F0070006285BD2DFE800F077
:102E10003A5052545658AE498A420BD1006800F0DD
:102E2000070006284ED200E010E0DFE800F02B415A
:102E300043454749A7498A420AD1006800F0380053
:102E4000182839D0B7DD2028BBD13CE001203AE07A
:102E5000A1498A4209D1006800F00700062831D252
:102E6000DFE800F01026282A2C2E9C498A420BD13C
:102E7000006800F00700062824D2DFE800F00319FC
:102E80001B1D1F2100201EE09A421BD18C48001DF3
:102E9000006800F00700062814D202E00CE007E00A
:102EA00010E0DFE800F0030507090B0D02200AE03F
:102EB000042008E0082006E0102004E0202002E0C2
:102EC000402000E080208649DFF818829A42864A36
:102ED0004FF400434FEA21174FF000064ED110285F
:102EE0001AD006DC022809D004280BD008287DD18E
:102EF0000DE020283ED0402878D13DE0FDF7C8FF06
:102F0000014610E06846FDF011FF01990BE003A8AF
:102F1000FDF0AEFF049906E01068800604D5106845
:102F2000C0F3C100C140C1B3606A676838F81020BF
:102F300007EB4703B1FBF2F0834257D8B0EB073FF2
:102F400054D8002308461946FDF715FA0902020273
:102F500041EA106170084FEA370010183A46714193
:102F60000023FDF708FA614AA0F5407191423DD86F
:102F700021684CE03946D7E71946D5E7D4F81CC09C
:102F80004FF6EF799C4552D108281AD006DC60B183
:102F900001280DD0042829D10EE039E0102815D0E1
:102FA000202840D040287CD13FE0FEF731FD01E0F1
:102FB000FEF02EF8014610E06846FDF0B7FE0199DC
:102FC0000BE003A8FDF054FF049906E010688006AA
:102FD00004D51068C0F3C100C140C9B1636A60681C
:102FE00038F81330B1FBF3F1490000E059E001EB90
:102FF0005001B1FBF0F080B2A0F11001494550D86A
:103000004FF6F0732168C0F3420218401043C860C5
:103010000120A4F86A00A4F868002846E66626673E
:1030200007B0BDE8F0833946D8E71946D6E7082847
:1030300019D005DC58B101280CD0042831D10DE09D
:10304000102815D020282ED040282AD12DE0FEF7B8
:10305000DFFC01E0FDF0DCFF014610E06846FDF01A
:1030600065FE01990BE003A8FDF002FF049906E05C
:103070001068800605D51068C0F3C100C140002962
:10308000C6D0636A606838F81330B1FBF3F101EB26
:103090005001B1FBF0F080B2A0F1100149457FF67C
:1030A00067AF0125B4E73946EBE71946E9E70000C9
:1030B000F369FFCF000C0058FFF4FF11001001402E
:1030C000544402580044004000480040004C004076
:1030D000005000400014014000780040007C004097
:1030E0000090D0033874100800440258FFFC0F0011
:1030F0002DE9F0479A4617460E460446089D4FF0C4
:1031000000094FF0200839E0681C37D0FDF0D0FBF3
:10311000A0EB0A00A84222D80DB320680168490735
:103120002CD5C069C043000528D423684FF4006142
:10313000196221680B6823F4D0730B6021688B68D7
:1031400023F001038B60C4F88080C4F88480C4F845
:10315000888000BF032084F87C90BDE8F087216858
:103160000B6823F4D0730B6021688B6823F0010394
:103170008B60C4F88080C4F88480EBE72068C06965
:1031800036EA000004D00020B842BDD00020E4E7B9
:103190000120F9E7090700284FEA116104DB00F17B
:1031A000E02080F80014704700F00F0000F1E020EC
:1031B00080F8141D704700000248006840680168EC
:1031C00049690847C4010024AFF30080154800B5E1
:1031D0008BB00078C00721D1124804F0EBFFE8B1B2
:1031E0003F2211490020089009900C23CDE90612D6
:1031F0000E490122CDE902200222CDE9040104207A
:103200000B49CDE900200B480F2201F0EDF90A4AE5
:103210000A49FCF019FF0348AFF300800BB00548E2
:1032200000BD000098000024F4D410084C9400085D
:1032300020D41008C8500024000000082D460008C3
:1032400040F2EF10704700002DE9FC4708680026A7
:103250004FF400370C4620280DD040280BD004280E
:1032600009D00021802889464FF4807A01D050454A
:1032700003D1012002E00121F4E70020804601F0A3
:103280001BFF0168C969884705462068402815D09A
:1032900004DC04280AD020280BD10FE0802803D0BA
:1032A000504506D1092609E00A2607E0102D1AD05C
:1032B00003E0102D4FF0000715D001264648102DD1
:1032C000476013D04FF001018160E18A8246228A73
:1032D000A1EB0201C160E08A218AA0EB010308D1C1
:1032E0004FF0020207E04FF00206E7E74FF002015D
:1032F000EAE74FF0010238483946FEF01EFBCAF8F3
:10330000486049EA0800228A5FEA0009A08A51461B
:10331000A0EB0200CAF8440021D0207FFF2804D28D
:103320000220C864207F086501E00020C864B8F16D
:10333000000F06D0102D25D0227FA06940EA026040
:103340000865E08A102D228AA0EB0200886237D03F
:103350000120CAF82C0020480021FDF7A1F91E48E1
:103360000121FDF79DF9B9F1000F2BD0618A208A68
:10337000CDE90001E268184861681346FDF75AF983
:10338000BDE8FC87208B1F233F26227FC0F3C42784
:10339000C0F3451CC7EB0727B7FBF3F700F01F008E
:1033A000CCEB0C2CBCFBF6F6C0EB0020B0FBF3F032
:1033B000120642EA074242EA062202430A65C0E7D1
:1033C0000220C6E7608A0090238A0348E2686168A9
:1033D000FDF024F9D4E700001C0200240168896A8A
:1033E0000847000010B500F10C0141600022027294
:1033F0000B46427207496022016000F12001184625
:10340000FFF03EFA044960232022143002F1C8FF85
:10341000203810BD147510086134100810B504462A
:10342000074820600748FDF79FF907494FF0806083
:10343000C1F88001BFF34F8FBFF36F8F204610BDDF
:10344000147510081C02002408E000E000F010BA17
:1034500000F026BA00F030BAFEF0A4BB70470000BE
:1034600070B5061D43F20451451843F21C5403196C
:10347000036100F12C0200F1140186E82600114AD4
:103480000260084601F0DEFB0F4940F8181B01F00E
:10349000D9FB0E49016043F2D841084401F0D2FB48
:1034A0000B49251F40F8141BFEF0E2FB401B41199D
:1034B0000246204400F0C0F9051B2819FEF08CFBE1
:1034C000284670BD5C9400084C9D0008748110086B
:1034D000809D0008704700F59C63994203D1016804
:1034E000CB6A1146184770472DE9F04F91B000F1B3
:1034F000FDF9BB490026C66340F8401B01F0FCFC07
:10350000303001F0F9FC00F1300426212046FCF7B0
:103510007CFF204600F12EFBB249FF2201606421AE
:1035200080F8262000F5BE728662C66280F83060A0
:103530003430FFF07BFAAC49016000F5367001F0E1
:10354000C3F9FF2231463830FFF03EF8183001F061
:10355000F1FBA64940F8441B01F010F9A44940F8DA
:10356000501B01F00BF9A34940F8501B02F05CFD21
:10357000A149A0F59C6400F1FC05A04AD1E9000135
:10358000C5E90201C5E9002404F2EC5042F6E0610D
:1035900001F076FB00224FF4487A114604F1400016
:1035A00053464FF4F0788146CDF8008000F1FAFEE2
:1035B00000224F461146104602F0B6F90022B862CA
:1035C00004F1700053461146CDF80080804600F1AA
:1035D000E9FE982247469920114602F0A5F940F2EB
:1035E000BF2BB86204F1A0005B46182207460F21EA
:1035F0004FF4D47ACDF800A000F1D4FEFF2211469A
:10360000104602F091F90022B8621146104602F00D
:103610008BF9F8620120014687F8300004F1D400EC
:10362000029001F02DFC029864220021FFF048FA7C
:10363000029818220F215B46CDF800A000F1B2FEDF
:1036400016200090029813231C220A2101F0FCF995
:10365000062000900023024602980221FFF05DF848
:103660000298B4220021FFF04FFA04F57F70012187
:103670008246FFF00FF9C5229721142002F054F979
:103680000146504601F036FC14215046FFF022F965
:103690000121504601F04AFB0298514601F06EF9B3
:1036A00004F5886001218346FFF0F4F814215846A0
:1036B000FEF0C2FFDFF848A1012203A95846CDF869
:1036C0000CA0ADF8102001F054F80022114610466D
:1036D00002F02AF90146584601F00CFC02985946BE
:1036E000FFF006F804F5926001218346FFF0D2F85E
:1036F00014215846FEF0A0FF03A95846CDF80CA0AF
:10370000ADF8106001F035F800221146104602F0C5
:103710000BF90146584601F0EDFB02985946FEF0C0
:10372000D5FF04F56B7001218346FFF0B3F8C52285
:103730009721142002F0F8F8014604F579708246CA
:1037400000F0EAFF5146584600F076FC0221584648
:10375000FEF088FF0298594601F010F904F59C60CC
:10376000882282464FF4367102F08FFF0220ADF8B6
:103770002C000120ADF8246009ABADF834000BAA91
:1037800050460DA902F0D0FB7D2000230322CDE995
:1037900000600721504600F124F9FA225046142116
:1037A00000F1ECF8B421504602F02EFC49462046C8
:1037B000C4F8D85502F062FA4146204602F05EFA9B
:1037C0003946204602F05AFA0299204602F056FA8B
:1037D0005146204602F052FA11B02046BDE8F08F63
:1037E000709400081C781008C47A1008AC96000881
:1037F000589500086C7710089C741008B09B00085E
:10380000A881100870470000044A0023836002F179
:103810001803C160C0E90023704700001C7610083F
:10382000704700000048704760741008022070471D
:1038300000487047AC00002410B5FEF0DBF90149E8
:10384000016010BDA89400087CB514460D4668467A
:1038500002F1E2FFBDF80000002806D0BDF802002A
:103860002860BDF80400206001207CBD04F098BDF4
:1038700070B50446FFF066F900F08CF80146206848
:10388000C26C20469047206800234FF04041034A15
:10389000456F2046AC46BDE870406047009411C0BB
:1038A00001F066BB5A2010B5FEF05CF8BDE8104090
:1038B0005820FEF057B8000002480122C0F8AC10B2
:1038C000426270470010005009215A2010B5FFF7DE
:1038D00061FC0921BDE810405820FFF75BBC0000E7
:1038E00008B5D0F85411054B009100F59C71D0F843
:1038F0005021034805F0D0FC08BD00005801002409
:1039000054010024014901607047000070761008DE
:103910007047000010B5FFF7E7FD43F2CC420249C3
:1039200000230160135010BDB4761008FEF006B9F4
:1039300030B5044C039D04600171C2800381458150
:1039400030BD0000EC94000810B5064C0021606802
:1039500002F1F6FF60684FF0FF31BDE8104002F160
:10396000EFBF00001C0000240148006802F1C0BF46
:103970001C00002402480021006802F1E1BF0000A1
:103980001C00002490F84430002B01D102F064BCEC
:10399000704770470148C06870470000500100241C
:1039A00077B587B0064608A802F1E0F900286ED185
:1039B000B6F8E84006F1A805ECB3641E55D4A0B2F1
:1039C00005EBC0000168009108A9406801906846B5
:1039D00002F1D8F900285AD108A8694602F1D2F9B3
:1039E00028B1A2B2294602A803F1B3FCE5E708A971
:1039F000684602F1ECF948B1A2B2294602A803F1E7
:103A0000A8FC08A8694601F003FFD6E7DDE9080134
:103A1000CDE9020102A8694601F0FAFEBDF82400D2
:103A2000BDF82610BDF8062010FB01F0BDF804100B
:103A300011FB020200E018E002EB420000EBC201C1
:103A4000BDF80C00BDF80E2010FB02F000EB80006A
:103A500040008142B1DDA2B2294604A803F179FCFD
:103A6000DDE90201CDE90801A7E7B6F8E80008287A
:103A700008D107222946684603F16BFC08A869466D
:103A800001F0C6FEDDE90812284605F097FC0AB0F1
:103A900070BD000003484068002802D00268D26967
:103AA000104770475001002403484068002802D0A6
:103AB0000268126A10477047500100242DE9F04F48
:103AC00099B0044680F8341129B10020A4F8E80028
:103AD00019B0BDE8F08F04F5967002F147F990B97E
:103AE000D4E94B1204F580752046FFF759FF0020FA
:103AF000009003460246014601A8FFF028FC016839
:103B0000E96240682863B4F8E80098B10020FD4FEE
:103B100080F00105386920B107F1140002F126F99F
:103B200050B1002DD4D001A805F058FC3E8804F116
:103B3000A80520E00120EAE7F2481430FEF094FFE7
:103B4000D7E905122046FFF72BFF0020009003461F
:103B50000246014601A8FFF0FAFB0168796140685E
:103B6000B861E0E705EBC6000168426801A805F00E
:103B700025FC761CB6B2B4F8E800B042F2D8E148B1
:103B8000068804F1EA00169009E0169800EBC600DA
:103B9000016842682046FFF703FF761CB6B2B4F80E
:103BA0002A01B042F1D8DFF860A3DAF8000090F8FB
:103BB0004800012804D0022877D0D2480688BCE10A
:103BC000DFF840B30026BBF800700CE0B8B205EB9C
:103BD000C000804602F1C5F8B04203DD404602F164
:103BE000C0F806467F1CB4F8E800B842EEDCC748CF
:103BF00000880F2801D9C00800E00120814600207C
:103C0000009003460246014612A8FFF0A0FBD046F2
:103C100053E0D1F884108847074612A802F1A1F8B2
:103C20004844B8420BDDB74209DA12A802F199F80C
:103C3000B8423BDD12A802F194F8002836DD12A844
:103C400002F18FF8B84201DCBE4200DA374612A812
:103C500002F187F83F1A12A802F183F8024638B23F
:103C60000090AB480021008803B217A8FFF06FFB5B
:103C70000168129140681390BBF8007010E005EBEA
:103C8000C70112AA14A802F1DDF814A802F16EF817
:103C900020B9206814A9426B204690477F1CBFB210
:103CA000B4F8E800B84208D9E9E711E0D8F8000014
:103CB0000168D1F880200121904712A802F151F843
:103CC000B042D8F800000168A3DBC969884738E131
:103CD00090480078012879D00DE18A484FF000081B
:103CE000B5F900600088401C87B226E005EBC000F3
:103CF000814604F06AF88246B9F906B005EBC700C0
:103D0000814604F062F85045514606DDB9F900607D
:103D1000B846084656450ADB0DE00AD1B9F9061047
:103D2000594500DDB846B9F90000B04203DB06464C
:103D300001E0B042FBDC7F1CBFB2B4F8E800B8423F
:103D40001FFA88F0D2D805EBC0073868129078685F
:103D50001390BDF94C00142801DABDF9486012A88F
:103D600004F033F8801BADF84C0012A8ADF84860A1
:103D700001F006F812A801F1F9FF38BBBDF94E00B9
:103D8000142800DD1420BDF84C3081B25E48BDF827
:103D90004A2000680091BDF848100668B66FB04729
:103DA0000646ADF84E0012A8FEF05EFE206812A98D
:103DB000426B20469047B888801B00B2B88028B973
:103DC0001FFA88F2294614A803F1C3FAB4F8E800F0
:103DD000002882D1B5E04FF00009284601F1C1FF6B
:103DE000064648480088401C87B228E005EBC00022
:103DF00005EBC708B0F902A0B0F90410B8F9020049
:103E0000504508DAB946404601F1ABFF50455146EE
:103E10000CDD0E4611E00DD1B8F90400884200DD3A
:103E2000B946404601F19DFFB04206DC404601F133
:103E300098FF01E0B04200DA06467F1CBFB2B4F83A
:103E4000E800B8421FFA89F0D0D805EBC007B7F9EF
:103E50000600142803DA384601F183FF0646384687
:103E600001F184FFF0BB12A8FFF078FA3888ADF8B2
:103E70004800B7F90200ADF84A00B988301A142892
:103E8000ADF84C1000DD142086B2384601F169FF10
:103E9000BDF94A10401AB04205DC384601F161FF15
:103EA000BDF94A10461A1848B1B2BDF84C30BDF8F9
:103EB0004A2000680091BDF848100668B66FB04708
:103EC000ADF84E0012A92068426B204690477888D2
:103ED000BDF84E1008447880F888BDF84E10401A9E
:103EE00000B200E007E0F88028B91FFA89F22946FD
:103EF00014A803F12EFAB4F8E80000287FF46BAFA1
:103F00001FE0000050010024C4010024BC01002473
:103F1000BA010024B401002405EBC6000168129127
:103F20004068139012A801F121FF20B9206812A95E
:103F3000426B20469047761CB6B2B4F8E800B04217
:103F4000EAD80D48007800283FF4C2AD0020A4F85C
:103F50002A010A48048809E001A800EBC4000168AE
:103F60004268169805F02AFA641CA4B2BDF8440011
:103F7000A042F1D8ACE50000B501002450010024B6
:103F80000022A0F8842011464318491C202983F8F8
:103F90008820F9DB704700003EB50446084800223F
:103FA0001146008800B200900648008803B201A8BC
:103FB000FFF0CDF9206801A9426B204690473EBD35
:103FC000BC010024BA010024F8B51749002501609E
:103FD000A0F88450A83005F001FA423005F0FEF94F
:103FE0000023009542301A461946FFF0B0F90572D9
:103FF000A0F5967445720D490D48FCF069F800B1C2
:1040000001200C4E08B1358006E04FF4806030800E
:104010000220706001F04AFEF56020467560B560D0
:10402000FFF7AEFF2046F8BD00950008CDB5E8B516
:10403000C2A507F4500100248162704770B51C4688
:104040000B46A1F5C06605460498B6F5407F216889
:1040500005D20A460146284600F04CF913E0A2F5C5
:1040600060637F2B05D80A460146284600F041F8D8
:1040700009E095F8550038B1A2F51060023803D177
:10408000284600F023F92060206810B102F151F9B0
:1040900018B1002085F8550070BD0120FAE770B511
:1040A00000F11A050446008EB8B1A98A401E35F801
:1040B0001160E882481C80B2A8820A2801D30A381D
:1040C000A882204600F0D2F8208B1234022801D2B8
:1040D000401CE080A08810B103E0AFF30080022014
:1040E000A08080B2401E80B2A08024F810603046CC
:1040F00070BD2DE9F05F5FEA02088B4604464FF081
:10410000000921D098F80D0004F1400A98F8071032
:1041100000F01000B8F8045041EA0016A5F631612D
:10412000F7101E2953D2DFE801F018525218181860
:1041300018414141525252525252525252525252CC
:104140001818181818181818A4F84E904846A4F80B
:104150005090A4F85290BDE8F09F04F11A0005F0C9
:104160007CF840F63361884208D1DBF80000C26871
:104170005846904703F0B6FFA4F84E00F119B4F882
:104180004E000E220844414624F84E0F5046FBF0E4
:1041900049FFB4F90010504603F0C6F814F8050CB6
:1041A0002179401A04F8050C5046D4E70E22414606
:1041B0005046FBF037FF34F8500FC01B01B2504699
:1041C00003F0B2F82088F119401A2080ECE7A5F539
:1041D00060601B3822D0A5F560601D381ED0A5F5A3
:1041E00060601F381AD0404603F07CFFA4F84E00F0
:1041F000A5F56060093840F6136A21D055451FD0F7
:10420000A5F5606019381BD0A4F85290404603F021
:1042100069FF801BA4F8500040469CE76D1E5A467B
:10422000ABB24146204603F038FB03F05BFFA4F835
:104230004E00404602F17DF8810801EB501012E07B
:10424000404602F176F85545074602D140F60C6526
:1042500000E06D1E5A46ABB24146204603F01DFBFE
:1042600002F167F8381AA4F85200CFE770B500F1F0
:104270001A06054613E0288F05F13204B8B1A1886B
:10428000401E34F81110E080A088401C80B2A0804D
:10429000022801D3801EA080304604F0E7FF288F5B
:1042A00070B1304605F0B6F80028E4D008E0AFF36E
:1042B0000080284600F048F90146304604F0D6FF59
:1042C000304605F0A7F80028F3D070BD70B504465D
:1042D00069B104F140000E220546FBF0A3FE28461A
:1042E00002F120F8404284F84900284670BD084693
:1042F00070BD00002DE9F047924F160004460AD029
:10430000727BF07902F01002B18840EA0215042DA8
:104310000ADDA81009E0A4F84E70A4F85070A0F8C7
:1043200052701046BDE8F087012040F2DB639942ED
:104330008046A1F2DB6004F1400912D048DC40F273
:1043400053629142A1F253600BD020DC40F219621B
:104350009142A1F2196079D004DCA1F5C26108296B
:104360007ED873E0352871D008DC012805D03228CA
:104370006CD033286AD0342872D199E0362865D0C1
:1043800037286ED0382861D0392869D15EE00A28F4
:104390005CD008DC0A2863D2DFE800F0BD588A8AC6
:1043A00058585858588A832850D008DC0B284DD0CC
:1043B0000C287DD01D2849D0212851D146E08428E1
:1043C00044D0852842D0862840D0872848D13DE077
:1043D000B0F5047F3AD029DC102837D00BDCA0F1EF
:1043E00004000C283CD2DFE800F031313131633178
:1043F00096963131966340F20B229042A0F20B2147
:1044000056D00ADC112821D0122851D0A0F5007016
:1044100009381BD001287ED118E0012916D00229C5
:1044200014D0032944D0042975D10FE0A0F2112043
:10443000132870D2DFE800F00A3C3C3C0A0A3C0A30
:104440000A0A3C0A0A3C3C0A0A0A0A00B4F94E006D
:10445000B8420CD1B4F95000B84208D1304601E05E
:1044600059E025E003F03EFEA4F84E002BE00E22BA
:1044700031464846FBF0D6FDB4F95200B84208D0A8
:10448000304601F14FFF94F85210A1EB500084F830
:104490004900B4F94E00B84204D0284401B248465D
:1044A00002F042FF484603F01DFEA4F84E002DE046
:1044B000B4F94E00B8420AD1B4F95000B84206D15E
:1044C000304603F00FFE401BA4F8500037E00E22E8
:1044D00031464846FBF0A6FDB4F95200B84208D078
:1044E000304601F11FFF94F85210A1EB500084F800
:1044F0004900B4F95000B84205D0A0EB080001B261
:10450000484602F011FF484603F0ECFD401BA4F8BA
:104510005000484606E7304603F0E4FDA4F84E009C
:10452000401BA4F850004E34304601F1FBFE400021
:104530000521B0FBF1F096F909100844A08030463F
:10454000F0E600000080FFFF416811B9016831B357
:104550004160017C51B1C16831B10A8822B10A467B
:10456000891CC1601088704700210174426811885D
:10457000A9B1022904D01146921C426008887047F4
:10458000921C426081680A1D82600968C16000292E
:10459000DAD009880029D7D001210174D4E700209E
:1045A0007047704701680969084710B504464068BC
:1045B00001680968884738B9207A28B160680168BD
:1045C0004969884700202072606801680968884747
:1045D00018B1BDE81040FDF0F9BB2068416A2046E3
:1045E000BDE81040084700002DE9F04F87B0814634
:1045F0000DF1500EDDE917409EE8200C0DF1400E44
:104600009EE8C0110495CDE905408DE8C0114846EB
:1046100000F1ACFC04490160C0E906AB19990162E4
:1046200007B0BDE8F08F00008478100870472DE9CE
:10463000F0470546D018DDE9099700EB4000441823
:10464000287A697A10FB01F0FEF073FEFF2882469B
:1046500031D0BAF1000F2CD017F8011B11FB0AF072
:10466000FEF067FEA97D0646C0F1FF08207811FB29
:1046700006F210FB082080B2FEF05BFE2070697D20
:10468000607811FB06F210FB082080B2FEF051FEAC
:104690006070297DA07811FB06F210FB082080B223
:1046A000FEF047FEA070E41CA9F101005FEA0009DA
:1046B000D2D1BDE8F08717F8016BFF2E26D0A97D77
:1046C000C6F1FF08207811FB06F210FB082080B22B
:1046D000FEF02FFE2070697D607811FB06F210FB62
:1046E000082080B2FEF025FE6070297DA07811FBC5
:1046F00006F210FB082080B2FEF01BFEA070E41C46
:10470000A9F101005FEA0009D5D1D2E7A87D2070A8
:10471000687D6070287DF1E770B50C46054600F0B5
:10472000CBFC0168CA6A21469047287500F0C4FC9A
:1047300001680A6B21469047687500F0BDFC01686E
:104740004A6B21469047A87570BD10B50446D0F855
:104750003C0100280CD00168C9688847002807D0B0
:10476000D4F83C010168896888470020C4F83C01FE
:1047700010BD8988A0F840107047000010B500F007
:10478000B1FB0A4C002208494FF6FF73016040213B
:10479000C0E90E240B5280F844202E21A0F84620B8
:1047A000A0F84810C26410BD44791008A881100810
:1047B0000149016070470000447910080449016014
:1047C000002141600172C1600161416170470000D8
:1047D000E49500082DE9F0430546406987B00C4692
:1047E000D0F8148095F8340002F1D7FD0746224630
:1047F0004146284601F100F9064622464146284630
:1048000003F097F90246334601A82946009701F1C3
:10481000C8F8002C17DD601E414602B22846164635
:1048200001F1EAF8814632464146284603F081F913
:1048300002464B4603A82946009701F1B2F803A9A6
:1048400001A800F0E5FF404603F0F8F8401EA04242
:1048500017DD641C414622B22846164601F1CCF809
:10486000044632464146284603F063F90246234691
:1048700003A82946009701F194F803A901A800F0C4
:10488000C7FF404600F1F8FE0646404603F01AF91D
:104890000446404603F0E5F80021024605A82346F9
:1048A0000096FEF054FD01A9024603A801F1CAFAE0
:1048B000DDE90301CDE90101286801A90269284663
:1048C000904707B0BDE8F08310B500F0CFF9034979
:1048D0000160022180F8341010BD0000F49500083A
:1048E0002DE9FF41244C0546D5E90060A169E9B3F3
:1048F000A06801EBD17103AF00EB61000390A069E8
:1049000029680297CDE90010E36BE26AE16920684B
:10491000FDF0ABFE0646A06969680297CDE900107C
:10492000236C226B216A6068FDF09FFE0644D4E987
:10493000051000EBD07001EB60000390A0692968BE
:104940000297CDE90010636C626B616AE068FDF06C
:104950008CFE8046A06969680297CDE90010A36CBF
:10496000A26BA16A2069FDF080FE00E000E04044F7
:10497000C5E90060BDE8FF81EC50002438B504466D
:104980000D46343000F116FBB4F93E100022B4F9A4
:104990003C302846009129688C6A1146A04738BDF2
:1049A0003EB5044648890D4602AA218F401A01B23D
:1049B0002068D0F8B43020469847002817D02879CE
:1049C000002814D1D4F82401002810D00168C96847
:1049D000884700280BD0BDF808006A46ADF80000F3
:1049E0000195D4F8240101688B68214698473EBDA3
:1049F0003EB5054608790C46022824D0E08802AA74
:104A0000298F401A01B22868D0F8B4302846984758
:104A1000002818D0207908B1012814D1D5F8200138
:104A2000002810D00168C968884700280BD0BDF85D
:104A300008006A46ADF800000194D5F8200101682D
:104A40008B68294698473EBD2DE9F84304464089C6
:104A50000F461E46089D904632442944401A21893B
:104A600000B20090891A3A460BB2414604F1340074
:104A7000FFF098FCB4F90830002204F1B8001146A8
:104A80000097FFF08FFCB4F90A000022434611465C
:104A9000009004F16000FFF085FC21890022B4F948
:104AA0000A003346891B009009B204F18C00FFF024
:104AB00079FC60890021B4F90830401B009502B2EE
:104AC00004F1E400FFF06EFC2046BDE8F843AFF3CC
:104AD0000080F8B5C56D04460BE0B4F93E10002225
:104AE000B4F93C302846009129688E6A1146B047D7
:104AF000AD69002DF1D1D4F8E0500BE0B4F9C2104B
:104B00000022B4F9C0302846009129688E6A114607
:104B1000B047AD69002DF1D1D4F888500BE0B4F95D
:104B20006A100022B4F968302846009129688E6A1C
:104B30001146B047AD69002DF1D1D4F8B4500BE067
:104B4000B4F996100022B4F99430284600912968EF
:104B50008E6A1146B047AD69002DF1D1D4F80C51E1
:104B60000BE0B4F9EE100022B4F9EC3028460091C5
:104B700029688E6A1146B047AD69002DF1D12068D1
:104B8000416901B02046BDE8F040084770B50D46C8
:104B9000B0F91A11A94209DDC46D05E02068294663
:104BA000826F20469047A469002CF7D170BD70B584
:104BB000D0F8E0400D46064605E020682946826FA1
:104BC00020469047A469002CF7D1D6F80C4105E0A7
:104BD00020682946826F20469047A469002CF7D1AF
:104BE00070BD70B506460068D0F89410304688470E
:104BF00004463068D0F8981030468847A0420546F1
:104C000008DA20B22C46054604E021B23046FFF710
:104C1000CEFF641CAC42F8DD70BDC02230B411522E
:104C2000EC221152B0F894309022CB1A1352B0F803
:104C30006830B0F894402344CB1A8387018130BC9C
:104C4000FFF747BF024901600021818070470000E3
:104C5000789600080149016070470000D07910087B
:104C60004168006901EB40107047000010B5FDF08D
:104C700093F9024901600121016310BD107C100805
:104C8000014AC2E900017047900100240148806890
:104C900070470000900100241D4B70B519469A68BA
:104CA0000968904209D1DA688A4206D1D869102889
:104CB00001D3012070BD002070BD5A68C3E9020114
:104CC000824223D310F0030403D0C4F10404121B66
:104CD0002144121A01441961401C20F00100824253
:104CE00014D310F00305C5F1040401D0121B2144B4
:104CF000121A82420144596108D30DB1121B21449A
:104D00000144101A1028C3E90610D2D2AFF3008074
:104D1000900100240148C068704700009001002401
:104D200001480069704700009001002480F83C10A1
:104D30007047704710B5FDF0EFFE054901600A218C
:104D40008163012180F83C100021016410BD000046
:104D5000947C100810B50446B0F91A01B4F9181182
:104D600088420CDB2046FFF73CFF2068D0F8AC10EF
:104D7000204688472046BDE81040FDF0CBBC10BD62
:104D800008491CB500240A8807490988ADF8004085
:104D9000ADF80420ADF80240ADF80610694600F009
:104DA00005F81CBDBA010024BC01002410B504465E
:104DB0000A48007800280FD001280DD12088A28849
:104DC00010440A46401E2080A11C204600F008F82E
:104DD000A088E188A180E08010BD0000B40100241B
:104DE000074B10B51B78002B08D0012B06D1038888
:104DF0000C8804809088C01A401E088010BD0000F6
:104E0000B4010024C26A514300F001B8704770B584
:104E1000044600680D46D0F80C2120469047D4F88F
:104E20002C012946401CC4F82C012068D0F8102120
:104E30002046BDE87040104710B59142044601D1AC
:104E4000AFF300808A4202DA084611460246D4F8DF
:104E50004001884203D1D4F8440190420FD0C4E904
:104E6000501204F1600001F1EFF904F1340001F196
:104E7000EBF904F18C00BDE8104001F1E5B910BD7B
:104E800070B5C56A0446C162D0F834112A4600F1F3
:104E9000FCFBC4F834012A46D4F83011204600F156
:104EA000F4FBC4F8300170BD70B516460D46FDF038
:104EB00059FC04460A4820600020C4E94A60C4F84E
:104EC00030010120002DC4F8340101DCAFF3008073
:104ED0006A1E20460021FDF0F3FD204670BD000053
:104EE000487D100810B5FDF017FE0149016010BDA6
:104EF000609800084163704710B526210446FBF70F
:104F000084FA2046FEF036FE0449FF22016080F854
:104F100026200022826280F82C2010BD789900089B
:104F200040680168896908472DE9F04F89B08346D8
:104F300012A81C4615468A4690E8C00300F0BCF84B
:104F40000168096A8847094A012302215289CDE98B
:104F50000532CDE907108DE8D00300222B465146DB
:104F6000584600F0C4F909B0BDE8F08FB401002440
:104F7000012180F84B1080F86910704710B5044685
:104F800090F86A00002812D0022000F040FC0020B7
:104F900084F86A0084F86900204600F013F801469E
:104FA0002068D0F8A0202046BDE81040104710BD72
:104FB000416801224A724068016809690847FEF7A2
:104FC000D3BC000010B504460648407840B12068C4
:104FD000816A20468847E16B884201D1206C10BD70
:104FE000E06B10BDB40100242DE9FE430F460446DA
:104FF000806998460A99164680B30022029202AA56
:10500000CDE90012016832460D683946A847154DB2
:105010008146A5F80A8000F04FF80168096A8847C0
:105020000D2818D2DFE800F0070F1B1B1B1B1B1BF2
:105030001B1B1B1B1B006889029906FB007040426A
:1050400001EB400006E06889029906FB0070A0EBC6
:1050500080000844E0634846BDE8FE83FFE7AFF305
:1050600000800000B4010024F0B50E4A0E4B114C34
:1050700090F874C090F834E00C4D0D4EF445118852
:105080001888277805D0002F0BD129800127308080
:1050900004E0002F05D0288000273180198010807F
:1050A0002770F0BDBA010024BC010024BE01002419
:1050B000C0010024B40100240448016891F876007E
:1050C00010B1C86C002800D188687047C401002462
:1050D000FEB504460068D0F8981020468847594E1F
:1050E000002500287ED0012000F090FB94F8660097
:1050F00084F8670084F8665084F84B5094F8750083
:1051000030B12068D0F8AC102046884784F875503C
:1051100094F84A00616868B1002048720127F7706E
:10512000FEF738FC01688A6B0121904794F867000C
:1051300010B103E00120F0E784F86770FEF72AFC65
:1051400001684969884754F8580F01680969884718
:10515000E07B401EC0B2E073217C583C09B10028BE
:10516000ECD13079401C40B2307194F96410814226
:1051700014DC35716A46E0680168CB6801A998477C
:105180000028206806D0DDE90021D0F8A4302046B0
:10519000984703E0D0F8A810204688478DF80850BB
:1051A000606950B10168CA6802A9904728B1A06D32
:1051B0000168CA689DF80810904704F11C0001F0CE
:1051C0007FFA94F86C0068B3206901680969884720
:1051D0000746206F00B92767206F1B49381A88429D
:1051E00020D900E024E02069016889698847216F9F
:1051F0007A1A6421B2FBF1F2B0FBF2F0002802DC73
:1052000084F8651008E0642802DB84F8655003E048
:10521000C0F1640084F8650020690168CA69002152
:1052200090472767FEF7B6FB01688A6B002190471D
:105230002068D0F89C10204688470120FEF086F8B0
:10524000F570FEBDB401002400E1F50510B586B08F
:10525000044603A8CDE90312FFF742FB039802A915
:10526000ADF804000498ADF8080001A8FDF014FCA6
:1052700094F86B1004F11C000029BDF8081016D03A
:1052800089B20091BDF804108BB2B4F860108AB2F4
:10529000B4F85C1089B2FFF003F9002805D0BDF91D
:1052A0000400E065BDF90800206606B010BD8BB2B1
:1052B000BDF804108AB20021FFF032F9012084F811
:1052C0006B00ECE710B5044690F86B0000280DD099
:1052D000B4F86000012183B2B4F85C0082B204F13A
:1052E0001C00FFF01DF9002084F86B0010BD2DE9B3
:1052F000FF4F8BB0054602A8DDF87880DDE91C4938
:10530000DDE91F76DDE919BAFEF0AAF8022F08D010
:10531000FF2C02D3B9F1000F01D0042009E00120D5
:1053200007E0FF2C02D3B9F1000F01D0402000E0CC
:10533000202002900C9803900D9804901B98ADF8D3
:1053400018B0ADF81AA0ADF81C0028468DF824401E
:10535000FFF738FE189A03460E992846CDE90086D5
:1053600000F1A2FC8DF82570BBF1000F0590ADF89F
:105370001E808DF8266009D0BAF1000F06D028688B
:10538000016B284688470299084201D1AFF300809B
:10539000686801684A6802A990470FB0BDE8F08FBD
:1053A0002DE9F04786B004460EA8984691468A46F5
:1053B00090E8E000FFF780FE0168096A8847084925
:1053C00043464A464989CDE903108DE8E00020684C
:1053D0005146456C2046A84706B0BDE8F08700005E
:1053E000B40100242DE9FF4F8BB08946054602A881
:1053F000DDF860B0DDE91B64DDE919A7FEF030F8E7
:10540000FF2F01D2082000E002204FF00008CDE974
:1054100002082846FFF7D6FDCDE90064DDE90D124C
:105420000346284600F140FC8DF82470ADF818B012
:10543000ADF81C808DF825400590ADF81AA0ADF8A8
:105440001E60CDF820908DF826402868016B284614
:1054500088470299084201D1AFF30080686801686B
:105460004A6802A990470FB0BDE8F08F4068016814
:1054700089680847826B002A01D0084610477047A8
:1054800004460068816E204688472068016E2046E9
:105490008847FEF759FA2068816DF8E710B5002AB1
:1054A000044688B018D0012A18D0022A24D0032A32
:1054B00012D1B4F904000090C888B4F906306188AC
:1054C000C01AB4F90020401A01B205A8FDF03FFF50
:1054D000016821604068606008B010BDB4F9040044
:1054E00000908988B4F90630081A2188401AB4F966
:1054F000021002B201A8E9E7B4F906000090CA88D8
:10550000B4F90430101A6288801A02B2888821889F
:10551000C01A401A01B203A8D8E72DE9FF4FD7B04F
:105520001C468946DDE96475002F7ED0206800287E
:105530007BD0A07B002878D0106853905068002260
:1055400054901146B9F90600009033A8B9F9043017
:10555000FDF0FDFEA27933A953A8FFF79FFF33A901
:10556000A2790846FFF79AFF07A8FCF07DFF2068A4
:105570000168496C884703462A4607A8AA46394667
:10558000FCF003FE207900B101208046206801680C
:10559000096B8847B4F90C100D18002D03DDBDF917
:1055A0004E21824201DA002602E0501890FBF5F607
:1055B0001DA8FCF059FF207C48B120680168496CA7
:1055C0008847034652461DA83946FCF0DEFD217C83
:1055D0002068BDF8D020CDE9000163791DA94BA852
:1055E000FDF058FE207C30BB3AE0BDF9D200B0EBB4
:1055F000450F01DA012100E000214BA8FDF06BFD11
:10560000BDF83E7103E0617907A8FCF035FE7F1E0E
:10561000BFB2F8D2BDF8CE002844ADF8CE00BDF838
:10562000D200401BADF8D20000E081E0BDF82C01B3
:10563000761E00287CD0002ED7DC13E007A8FEF7EA
:105640002EFD002874D00A280AD1BDF8CE002844C7
:10565000ADF8CE00BDF8D200401BADF8D200761EEA
:10566000002EEBDC00270DF5A67B0DF11C0A207C3B
:10567000002650B1BDF9D200B0EB450F01DA01218F
:1056800000E000214BA8FDF026FDB8F1000F25D069
:10569000582207A935A8FAF0C5FC207C10B1BDF846
:1056A000460106E02168002335A847F6FF72FDF0A9
:1056B000AFFB217900B2012902D0022907D00EE008
:1056C000BDF9D010081A00EBD070401004E0E27B66
:1056D000BDF8D0101044081A06B200E0E67BBDF811
:1056E000CC003044ADF85401207C10B1BDF83E012F
:1056F00001E047F6FF709DF84A114A46CDE90501E1
:1057000055A9CDE9001B02A981E89004BDF9CE306E
:1057100000215798FDF0C2FB002817D1BDF8CE003C
:105720002844ADF8CE00BDF8D200401B00B200E026
:105730000CE0ADF8D200217C09B1A84206DB53A8E9
:1057400000F10FFBBDF9CE10884290DA5BB0BDE8E6
:10575000F08F30B5C58A448AED1A2C444482848A7D
:105760002244428362188282C382028B511A0183CF
:1057700030BD70B514460D462BB1012B07D0022B5E
:1057800009D0032B0CD0B0F90000084470BD02F022
:105790001CFB001B02E002F018FB401B401E70BD0A
:1057A000B0F90000104470BD002807D001DAC0F144
:1057B00000004FF00001020C02D003E01F207047F0
:1057C00010210004020E01D100020831020F01D1A4
:1057D0000001091D820F01D18000891C002800DB17
:1057E000491C481E7047838819448180C188114430
:1057F000C1807047A0F57E41FF3905D0A0F500516A
:105800000B3901D000207047012070477047704766
:105810002DE9F04704460D46084600F1A7FA002896
:105820003FD1204600F1A2FA38B12888208068884C
:105830006080A888A080E88832E0B4F90000B5F95B
:105840000010884200DB0846B4F902608046B5F9D2
:105850000200864200DB0646204602F0B6FA074602
:10586000284602F0B2FA874201DD204600E02846D1
:1058700002F0ABFA8146204600F173FA074628464B
:1058800000F16FFA874201DD204600E0284600F172
:1058900068FAA4F80080801B6680A9EB0801A1804B
:1058A000E080BDE8F0872DE9F0418846044600F12C
:1058B0008EFA88B3B4F90050B8F90000854200DCD4
:1058C0000546B4F90260B8F90200864200DC0646DB
:1058D000204602F07AFA0746404602F076FA8742FE
:1058E00001DA204600E0404602F06FFA401BA0803B
:1058F000204600F136FA0746404600F132FA874268
:1059000001DA204600E0404600F12BFA801BE080DF
:1059100025806680BDE8F081FFE700202080608060
:10592000A080E080F6E700002DE9F0410646094836
:1059300014460D46006850B1FFF7BEFB01682346D0
:105940002A468F6A3146BC46BDE8F0416047AFF356
:1059500000800000C401002470B504460888E0847B
:1059600004F12600054600F17BFB01B22068826B42
:1059700020469047284602F063FA01B22068C26BC5
:105980002046BDE87040104770B50D4604462621FC
:10599000FAF73BFD2046FEF06BFD044606484FF645
:1059A000FF712060FF20E184294684F8280020460A
:1059B000FFF7D2FF204670BDE0990008F0B404461E
:1059C00007481546049E8268002A07D18460324643
:1059D00041802846F0BC194600F004B8F0BC70477E
:1059E0006C01002410B50E4CA369002B16D10029C0
:1059F00014D092B2A28063881344C2EBC20203EBBC
:105A000043035B0003EB42028A4201D3AFF3008001
:105A100021622061BDE81040FDF0E0BC10BD000037
:105A20006C01002477B5044690F8A40081B00028EA
:105A30003ED094F8A50010B92046FDF014FD03AA4D
:105A4000204602A900F164FB04F1080102A802F05B
:105A50004FFA04F10C01029003A802F049FA0390F6
:105A600004F11400031F009003AA204602A902F0CB
:105A70000FFA05004FF0010602D084F8A5600CE093
:105A800084F8B15004F13000DDE90212FDF77AFF2D
:105A9000002084F8A50084F8A66004F18000029933
:105AA000C4F8B410039A8263C0E90A1284F8B050B3
:105AB0007FBD70470B460146091D1868826918466C
:105AC00010477047704700002DE9F04F0D46016BFD
:105AD00004469BB0287911B100287DD0A0E00028B1
