:020000040800F2
:10000000908D002479030008291710085512100854
:100010002924000885011008692C00080000000050
:10002000000000000000000000000000B90200080D
:10003000150500080000000015030008E919100864
:100040009303000893030008930300089303000838
:100050009303000893030008930300089303000828
:100060009303000893030008930300089303000818
:100070009303000893030008930300089303000808
:1000800093030008930300089303000893030008F8
:1000900093030008930300089303000893030008E8
:1000A00093030008930300089303000893030008D8
:1000B00093030008930300089303000893030008C8
:1000C00093030008930300089303000893030008B8
:1000D00093030008930300089303000893030008A8
:1000E0009303000893030008000000009303000836
:1000F0009303000893030008930300089303000888
:100100008901100893030008930300089303000873
:10011000930300089303000893030008151A1008BE
:100120009303000893030008930300089303000857
:100130009303000893030008930300089303000847
:1001400000000000000000000000000000000000AF
:100150009303000893030008930300089303000827
:100160009303000893030008930300089303000817
:100170009303000893030008930300089303000807
:1001800093030008930300089303000893030008F7
:1001900093030008930300089303000893030008E7
:1001A00029230008930300080905000893030008A9
:1001B00093030008930300089303000893030008C7
:1001C00093030008930300089303000893030008B7
:1001D00093030008930300089303000893030008A7
:1001E0009303000893030008930300089303000897
:1001F0009303000893030008930300089303000887
:100200009303000893030008930300089303000876
:100210009303000893030008930300089303000866
:1002200093030008930300089303000800000000F4
:1002300093030008930300080000000093030008E4
:100240009303000893030008930300089303000836
:100250009303000893030008930300089303000826
:100260009303000893030008930300089303000816
:1002700093030008930300089303000800000000A4
:100280009303000893030008930300080000000094
:100290000000000093030008DFF818D000F0A6F873
:1002A000FFF004FF0048004721691008AFF3008009
:1002B000FFF047FF908D00242C4B19680868B0E8C8
:1002C000F04F80F30988BFF36F8F4FF0000080F389
:1002D000118870470000000008480068006880F33B
:1002E00008884FF0000080F3148862B661B6BFF34F
:1002F0004F8FBFF36F8F00DF00BF00BF08ED00E03E
:10030000DFF80C00016841F470010160704700BF24
:1003100088ED00E0EFF30980BFF36F8F134B1A688D
:100320001EF0100F08BF20ED108A20E9F04F10607A
:1003300009B44FF0500080F31188BFF34F8FBFF323
:100340006F8F06F123FE4FF0000080F3118809BC87
:1003500019680868B0E8F04F1EF0100F08BFB0EC45
:10036000108A80F30988BFF36F8F7047380000242C
:10037000EFF30580704700000648804706480047B5
:10038000FEE7FEE7FEE7FEE7FEE7FEE7FEE7FEE745
:10039000FEE7FEE7492600089902000840EA01034B
:1003A0009B0703D009E008C9121F08C0042AFAD22B
:1003B00003E011F8013B00F8013B521EF9D27047EF
:1003C00030B50B46014600202022012409E021FA25
:1003D00002F59D4205D303FA02F5491B04FA02F522
:1003E0002844151EA2F10102F1DC30BD064C074D78
:1003F00006E0E06840F0010394E8070098471034F5
:10040000AC42F6D3FFF74CFF54D7000874D700086E
:10041000704770B58C1810F8015B15F0070301D117
:1004200010F8013B2A1106D110F8012B03E010F857
:10043000016B01F8016B5B1EF9D12B0705D400237A
:10044000521E0DD401F8013BFAE710F8013BCB1A1C
:10045000921C03E013F8015B01F8015B521EF9D511
:10046000A142D8D3002070BD214A30B5136823F0D3
:10047000010313601F4A1368C3F30B140123A4F58F
:100480004065243D06D01268C2F30B12A2F5406409
:10049000273C17D1184A1268A2B9184A14684FF0BD
:1004A0008A45B5EB045F18D01468C4F30B04A4F5B7
:1004B0008065833D11D01268C2F30B02A2F58064FF
:1004C000853C0AD00E4A93609368002BFCD11060E3
:1004D0001068884209D0002030BD0A4A13601368B2
:1004E000002BFCD1074A083AF1E7012030BD00009B
:1004F000002000E000ED00E0002004E00010005CBF
:1005000000300240084C0258014800F0DFB80000FB
:100510001C0200247047426943F6FE739A4342EA84
:1005200041014161002070477CB50E46154600210F
:100530000191020A8DF80500FF240D480223BA211B
:100540008DF8042001AA009400F176F910B109A0F9
:1005500007F0FCFF0648BB212B463246009400F111
:10056000D9F8002802D003A007F0F0FF7CBD0000FE
:10057000840200247265616420726567206572726E
:100580006F720D0A00000000F0B50126044600203D
:100590001E2301E05B1E05D303F01F0706FA07F5D3
:1005A0000D42F7D072B1082A0AD0102A05D0182AB5
:1005B00001D1072B06D30120F0BD082BFBD201E0AF
:1005C000102BF8D22368596121688B6823F0180337
:1005D00013438B60F0BD000008B5006806498842EF
:1005E00008D10648016841F400210160006800F468
:1005F0000020009008BD0000004C0258E044025862
:1006000070470000F0B590F86020012A22D0C1EBBD
:10061000C102012780F86070022380F8613000EB8E
:100620008202284D138F168EB2F83CC0D46A1B0587
:10063000283244EA064643EA4C530A2C46EA0306AB
:100640000AD0092C08D0137B46EA036349B10B2C6E
:100650001AD01DE00220F0BDD36803F07F4333437E
:10066000F4E701684C6AAC431C434C6201681368B0
:100670008B6151680A2901D009291BD1D168026810
:1006800021F07F41916215E0118B0F4D43EA8143C8
:100690000168CC69AC431C43CC61016813680B61F1
:1006A00051680A2901D0092904D1D168026821F0D2
:1006B0007F411162002180F8617080F86010084667
:1006C000F0BD00000F0033FF0F003FFF2DE9F047A2
:1006D0000446006800274FF004084FF001094668FF
:1006E0000568F10714D0E90512D5036823F4807377
:1006F0000360606E40F0010060662068C0F80890FA
:1007000084F8618084F86070616A09B12046884786
:10071000B00615D5A80413D520682022036823F459
:100720000053036020688260606E40F002006066E3
:1007300084F8618084F86070616A09B12046884756
:10074000300715D5280513D520680822036823F43F
:100750000063036020688260606E40F004006066A1
:1007600084F8618084F86070616A09B12046884726
:1007700070070CD568050AD52068026822F48062EB
:1007800002602068C0F808802046FFF04BFEB007EA
:1007900013D5A80511D520680222036823F400733D
:1007A000036020688260606E606684F8619084F8FF
:1007B0006070216A09B120468847F00612D5E80426
:1007C00010D52068016821F4805101602268102151
:1007D0009160616E616684F86190204684F8607073
:1007E000FFF70EFFBDE8F08708B500680B498842A7
:1007F00012D10B48016841F010010160006800222D
:10080000052100F0100000905A2000F04DFABDE8DC
:1008100008405A2000F1B2B908BD00000010005293
:10082000D444025870B5044600F014F80546601C24
:1008300002D004480078044400F00CF8401BA042A9
:10084000FAD370BD240000240AB181617047090405
:10085000FBE7000001488068704700002400002486
:1008600030B590F84120202A24D190F84020012A68
:1008700020D0012380F84030242280F8412020231A
:1008800000240268156825F00105156002681568E6
:1008900025F480551560026815680D4315600168E0
:1008A0000A6842F001020A6080F8413080F8404056
:1008B000002030BD022030BD30B590F84120202A04
:1008C00022D190F84020012A1ED0012380F8403028
:1008D000242280F84120202400250268136823F098
:1008E000010313600268136823F4706343EA012173
:1008F000116001680A6842F001020A6080F8414014
:1009000080F84050002030BD022030BD70B504009A
:1009100004D094F84100002510B106E0012070BD1C
:10092000204684F8405000F04DF8242084F841001F
:100930002068016821F001010160D4E9001020F075
:10094000706008612068816821F400418160E0687E
:1009500021680128A06806D040F404408860E0685F
:10096000022803D006E040F40040F7E721684FF486
:100970000060486020212068114A436813434360A7
:100980002068C26822F40042C26054F8106B0DCC9B
:10099000104340EA0320F06054F81C3CD4E9000204
:1009A0001043186054F81C0D026842F00102026006
:1009B000656484F84110256384F84250002070BDBE
:1009C0000080000210B586B0044614216846FFF08E
:1009D00062FB1349206888421FD11248016841F028
:1009E0008001016000680423302100F08000059040
:1009F0000020009112226946CDE90120CDE90303D0
:100A00000948FFF069FD07480830016841F480019A
:100A10000160006800F48000059006B010BD000081
:100A200000580040E0440258001C0258032010B552
:100A300000F05AF900F02AFF0F4A104914681368B1
:100A4000C4F3032203F00F038A5CC95C02F01F02A7
:100A500001F01F01D0400A4A20FA01F11160094952
:100A600008600020FFF082FF08B1012010BD00F1F6
:100A700073F8002010BD000018440258309500089B
:100A800034000024300000242DE9F041040004D09B
:100A900094F8A100002518B107E00120BDE8F0811D
:100AA000204684F8A05000F097F83448022184F8DA
:100AB000A110012202CC8B6923F070438B6194E872
:100AC0004A001943E3681E4354F8043D31439E69CC
:100AD0003143996121688B6803408B602168A68A45
:100AE000A7698B683B4343EA06438B602168CB6868
:100AF0000340CB602168A38B276ACE683E4346EA59
:100B00000346CE6021680B6903400B612368A68C05
:100B1000A76A1969394341EA0641196121684B699D
:100B200003404B612068A38D266B4169314341EA44
:100B300003414161236894F8351094F83600DE6A69
:100B4000000406F07F46DE62236840EA012094F844
:100B50003460D96A31430143D9622068416B41F066
:100B6000060141632068816941F001018161C4F897
:100B7000A45084F8A120002090E7000000F800F0C5
:100B8000124910B5124A134C0B6C11888B4212D1CA
:100B90005188FFF0BFFF206890F86610491C80F86C
:100BA000661002F065FC206802F1FBF8BDE8104019
:100BB000002002F141BCFFF0ADFF002004F06AFF0D
:100BC00020680168C969BDE810400847001000505E
:100BD00018000024C401002470B586B00446142116
:100BE0006846FFF058FA2A49206888424DD12948C2
:100BF000016841F008010160006800F008000590FC
:100C00002448001F016841F480610160016801F41B
:100C100080610591016841F400710160016801F48F
:100C200000710591016841F4807101600068002441
:100C30000E26694600F480700590FF200090022582
:100C40001548CDE90154CDE90346FFF045FC4FF6C8
:100C5000FF700090CDE9015410486946CDE9034684
:100C6000FFF03AFC4FF470400090CDE901540C487D
:100C70006946CDE90346FFF02FFC002205215820EC
:100C800000F012F85820FFF079FF06B070BD0000A8
:100C900000100050E4440258002802580024025872
:100CA00000200258704700000E4BF0B41B680D4640
:100CB000C3F30223C3F10706042E00D90426191D2D
:100CC000072901D2002300E0DB1E012404FA06F10B
:100CD0009C40491E2940641E994014402143F0BCA9
:100CE00007F044BC0CED00E0064900F0070210B527
:100CF0004FF6FF040868044B204040EA02201843E6
:100D0000086010BD0CED00E00000FA052DE9FC5F65
:100D1000044650F8241B002500902E460801FE4F83
:100D2000DFF8F8831DD5606E50B1B0F5801F0CD090
:100D3000B0F5001F0ED0B0F5401F1DD001250FE00B
:100D4000386840F40030386016E00221201D01F0C0
:100D50006DFB03E00098022100F1E8FC05000BD0D8
:100D60002E462088C00523D5606D05281ED2DFE8F9
:100D700000F00C11161B1B00626ED8F8001021F455
:100D800040111143C8F80010EBE7386840F4003018
:100D9000386009E00021201D01F048FB03E00098C5
:100DA000002100F1C3FC05466DB100E001252E468F
:100DB0002088800528D5A06D80281ED00CDC90B13D
:100DC00040280ED114E0626DD8F8001021F0070120
:100DD0001143C8F80010EBE7C02813D0B0F5807FAE
:100DE00010D001250FE0386840F40030386009E089
:100DF0000021201D01F01AFB03E00098002100F102
:100E000095FC054695B12E462088DFF810934005E5
:100E100009F108092CD5D4F8A400B0F5800F20D032
:100E20000DDCA0B1B0F5001F0FD115E0A26DD8F810
:100E3000001021F4E0711143C8F80010E4E7B0F5A8
:100E4000C00F13D0B0F5000F10D001250FE03868A7
:100E500040F40030386009E00021201D01F0E6FA7E
:100E600003E00098002100F161FC054675B12E46B3
:100E7000208800052DD5D4F8A800B0F1007F21D03E
:100E80000EDCA8B1B0F1807F10D116E0D4F8A42018
:100E9000D9F8001021F460011143C9F80010E7E708
:100EA000B0F1407F13D0B0F1806F10D001250FE07A
:100EB000386840F40030386009E00021201D01F05E
:100EC000B5FA03E00098002100F130FC05466DB151
:100ED0002E46206880011FD5A06CD8B110280FD0F5
:100EE000202812D0302815D0012514E0D4F8A820ED
:100EF000D9F8001021F0E0611143C9F80010E8E7CB
:100F0000386840F40030386004E00221201D01F010
:100F10008DFA05466DB12E462088C0042BD5E06DB4
:100F2000B0F5005F20D00DDCA0B1B0F5805F0FD12F
:100F300015E07A48A26C001F016821F030011143CE
:100F40000160E9E7B0F5405F13D0B0F5804F10D0F5
:100F500001250FE0386840F40030386009E00021D6
:100F6000201D01F063FA03E00098002100F1DEFB90
:100F7000054685B12E462088800429D5206EB0F51F
:100F8000403F23D010DC08B3B0F5803F14D0B0F55B
:100F9000003F0FD115E0E26DD8F8001021F4E041D8
:100FA0001143C8F80010E6E7B0F5802F0ED0B0F579
:100FB000A02F0BD001250AE00121201D01F036FAF7
:100FC00003E00098012100F1B1FB05468DB12E46EA
:100FD000208840042AD5D4F8AC00B0F1405F23D07B
:100FE00010DC08B3B0F1805F14D0B0F1005F0FD116
:100FF00015E0226ED8F8001021F4E0211143C8F862
:101000000010E5E7B0F1804F0ED0B0F1A04F0BD04B
:1010100001250AE00121201D01F008FA03E00098F3
:10102000012100F183FB05466DB12E4620880004A6
:101030001FD5E06ED8B1B0F1805F0ED0B0F1005F87
:1010400010D0012514E0D4F8AC20D9F8001021F01C
:10105000E0411143C9F80010E8E7386840F4003077
:10106000386004E00121201D01F0E0F905466DB172
:101070002E462068C0011ED5606CD0B101280ED06C
:10108000022811D0032814D0012513E0E26ED8F80D
:10109000001021F040511143C8F80010E9E738680A
:1010A00040F40030386004E00221201D01F0BEF958
:1010B000054685B12E462068DFF85CB04002ABF1F2
:1010C0001C0B57D51648016841F480710160FFF789
:1010D000C1FB82460EE01148626C001F016821F0DE
:1010E000030111430160E6E7FFF7B4FBA0EB0A0040
:1010F00064283DD80A480068C005F5D57DBBDFF8F7
:101100001CA0B4F8B0100AF1200ADAF8000001F4CB
:10111000407100F4407005E02C44025850440258DD
:1011200000480258884211D0DAF80010DAF800209E
:1011300021F4407142F48032CAF80020DAF800202D
:1011400022F48032CAF80020CAF80010D4F8B000A7
:10115000B0F5807F21D1FFF77DFB019019E008E019
:10116000FFF778FB0199411A41F28830814210D98A
:1011700003252E462078DFF830A4C0073DD0A06FAD
:10118000182838D026DC80B3082829D0102825D18B
:101190002CE0DAF800008007E2D5D4F8B010C1F3F3
:1011A0000120032858460DD0016821F47C510160CC
:1011B000B4F8B020DAF80010C2F30B021143CAF8F9
:1011C0000010D7E7F94A036802EA111223F47C51B0
:1011D0001143ECE720280ED028280CD001250BE085
:1011E0000121201D01F022F904E004E00098012112
:1011F00000F19CFA05465DB12E46207880071ED589
:10120000606F062819D2DFE800F0160C11161616CA
:10121000A26FDAF8001021F038011143CAF800106B
:10122000EBE70121201D01F001F903E00098012105
:1012300000F17CFA054675B100E001252E462078C4
:1012400040071FD5D4F89000062819D2DFE800F037
:10125000160C11161616626FDAF8001021F007014D
:101260001143CAF80010EAE70121201D01F0DEF861
:1012700003E00098012100F159FA05469DB100E014
:1012800001252E46207880062BD5D4F88C00B0F1AD
:10129000405F24D011DC10B3B0F1805F15D0B0F105
:1012A000005F10D116E0D4F89020D9F8001021F09A
:1012B00007011143C9F80010E4E7B0F1804F0ED0E8
:1012C000B0F1A04F0BD001250AE00021201D01F054
:1012D000ADF803E00098022100F128FA05468DB12F
:1012E0002E46207840062BD5D4F89800B0F5406FF4
:1012F00024D011DC10B3B0F5806F15D0B0F5006FBD
:1013000010D116E0D4F88C20DAF8001021F0E0417A
:101310001143CAF80010E4E7B0F5805F0ED0B0F5D5
:10132000A05F0BD001250AE00021201D01F07EF80E
:1013300003E00098022100F1F9F905468DB12E462F
:10134000207800062BD5D4F89C00B0F5C04F24D0EF
:1013500011DC10B3B0F5005F15D0B0F5804F10D19F
:1013600016E0D4F89820D9F8001021F4E051114388
:10137000C9F80010E4E7B0F5004F0ED0B0F5204FEB
:101380000BD001250AE00021201D01F04FF803E0F9
:101390000098022100F1CAF905464DB12E46207889
:1013A00000071ED5D4F88000B0F5805F0AD00FE0AA
:1013B000D4F89C20D9F8001021F460411143C9F8F9
:1013C0000010ECE70098022100F1B0F900B101260D
:1013D000D4F88020DAF8001021F440511143CAF803
:1013E00000102078C00613D5D4F89400B0F5807FA3
:1013F00005D10098022100F199F900B10126D4F835
:101400009420D9F8001021F440711143C9F800105C
:101410002068000316D5D4F8A00038B1B0F5803F9D
:1014200009D0B0F5003F0BD001250AE00021201DB6
:1014300000F0FCFF03E00098022100F177F9054677
:1014400085B12E462068400322D5D4F88400B0F53B
:10145000801F11D0B0F5001F13D0B0F5401F15D07C
:10146000012514E0D4F8A020D9F8001021F440316F
:101470001143C9F80010E5E7386840F400303860DF
:1014800004E00098012100F151F9054655B12E46BE
:101490002068C0031CD5E06C70B1B0F5803F10D05F
:1014A000012514E0D4F88420DAF8001021F440116A
:1014B0001143CAF80010EBE7386840F40030386098
:1014C00004E00221201D00F0B1FF0546CDB12E46FB
:1014D0002068800005D50098022100F127F900B1AD
:1014E0000126206880031BD5E06FB8B1B0F5807F7E
:1014F00010D0B0F5007F11D0B0F5407F0ED001259F
:101500000DE02948E26C0838016821F4803111436C
:101510000160DDE7386840F400303860F5B32E46EE
:101520002068C00207D5226FD8F8001021F00041D2
:101530001143C8F800102068C00008D5D4F8B420C2
:10154000DBF8001021F480411143CBF80010206833
:10155000800207D5A26ED8F8001021F080711143E7
:10156000C8F80010206840000CD5DBF8001021F40A
:101570000041CBF80010DBF80010D4F8B82011437C
:10158000CBF800102068002807DA0748226D0838D9
:10159000016821F040511143016000E008E086B18C
:1015A0000120BDE8FC9F000054440258CFFFFF001B
:1015B000E26FDAF8001021F440711143CAF800100C
:1015C000AEE70020EDE700002DE9F05F04000F46D4
:1015D0007ED0DFF83882D8F8000000F00F00B84263
:1015E0000CD2D8F8001021F00F013943C8F80010D0
:1015F000D8F8000000F00F00B84269D12078844D7F
:1016000040070AD52069296801F07001884204D991
:10161000296821F070010143296020787C4E361D35
:1016200000070AD56069316801F07001884204D969
:10163000316821F07001014331602078C0060AD57D
:10164000A069316801F4E061884204D9316821F46D
:10165000E061014331602078DFF8B4B180060BF11E
:10166000080B0CD5E1695846DBF8002002F0700247
:10167000914204D9026822F070020A430260207885
:1016800080070AD5E068296801F00F01884204D973
:10169000296821F00F01014329602078C0073ED05E
:1016A0005B49A2682868183920F4706010432860EC
:1016B0006068022818D0032819D00968012819D0B9
:1016C000490700294ADADFF848A1AAF1080A00E030
:1016D00044E0DAF8002022F007020243CAF80020B2
:1016E000FFF7B8F8814612E009688903E9E709685D
:1016F0008901E6E7C905E4E7FFF7ACF8A0EB0901CB
:1017000041F28830814202D90320BDE8F09F616830
:10171000DAF8000000F03800B0EBC10FECD120780F
:1017200080070AD5E068296801F00F01884204D2D9
:10173000296821F00F0101432960D8F800104046C4
:1017400001F00F01B9420BD9016821F00F013943B3
:101750000160006800F00F00B84201D00120D4E71A
:10176000207840070AD52069296801F07001884275
:1017700004D2296821F07001014329602078000714
:101780000AD56069316801F07001884204D231687D
:1017900021F07001014331602078C0060AD5A069AC
:1017A000316801F4E061884204D2316821F4E061DB
:1017B00001433160207880060CD5E1695846DBF89A
:1017C000002002F07002914204D2026822F07002FE
:1017D0000A43026000F05AF80E492A682B68C2F3E7
:1017E000032203F00F038A5CC95C02F01F0201F0C0
:1017F0001F01D040084A20FA01F111600749086032
:1018000007480068BDE8F05FFFF0B0B80020005264
:101810001844025830950008340000243000002499
:101820002800002430B500F031F80B4A0B490C4B6E
:1018300015681468C5F3032204F00F048A5C095D7F
:1018400002F01F0201F01F01D040064A20FA01F108
:1018500019601060084630BD1844025830950008E1
:10186000340000243000002400B5FFF7DBFF0549F9
:101870000968054AC1F30221515C01F01F01C8400B
:1018800000BD00001C44025830950008454970B561
:1018900045480968434B103B11F0380208D001114C
:1018A000082A03D0102A0BD0182A0BD0084670BD86
:1018B00019688906FBD51968C1F3C101C84070BD1C
:1018C0003A4870BD3749374D18310C1D24350A6828
:1018D000096826682D6802F0030406F00102C1F3CE
:1018E0000511C5F3CC0515FB02F200EE102AB8EE87
:1018F000400AE9B32F4ADFED2E0AB7EE001A6CB1A9
:10190000DFED2D1A012C01D0022C43D002EE101A6B
:101910001068F8EE422A81EEA22A1EE01C68A40696
:1019200011D51B6801EE901A1168C3F3C103F8EEDC
:10193000612AD84001EE900AC1F30800F8EE611A5E
:1019400081EEA22A0BE001EE901ADFED1C2A00BF07
:10195000F8EE611A106882EEA12AC0F3080001EEC9
:10196000900AF8EE611A40EE201A31EE810A00E08A
:1019700015E022EE000A1068C0F34620401C00EE7D
:10198000900AF8EE600A80EE201ABCEEC10A10EE52
:10199000100A70BD01EE901ADFED092AD8E7002089
:1019A00070BD0000104402580090D00340787D01C3
:1019B00000000039304402580024744A0024744C5A
:1019C00020BCBE4B2DE9F05F04007CD0FF4F207897
:1019D000FE4D1837DFF8F493103DC00748D0D9F812
:1019E0000000396800F03800102815D0182803D1FD
:1019F00001F0030002280FD06068B0F5803F12D0DC
:101A000010B1B0F5A02F18D0286820F480302860DD
:101A1000286820F4802009E02868800328D56068C1
:101A20000028D2D024E0286840F480302860606824
:101A300088B1FEF70FFF064609E0286840F48020D1
:101A40002860F0E7FEF706FF801B64287ED8286830
:101A50008003F7D50CE0FEF7FDFE064605E000BF6B
:101A6000FEF7F8FE801B6428F0D828688003F7D4BE
:101A7000207841F20308D54E0C3E800753D5D9F8A3
:101A80000000396810F038000ED0182801D18807FE
:101A90000AD0E068A8B3296821F019010143296040
:101AA000FEF7D8FE82461BE02868400702D5E068B2
:101AB00000288AD0FEF028FE40451BD82069402827
:101AC00012D0316800E0CCE021F47C3141EA0030F2
:101AD000306028E0FEF7BEFEA0EB0A000228B5D871
:101AE00028684007F6D5E5E7306820F47C3040F4FC
:101AF0000030EDE7207C316821F0FE4141EA0060D2
:101B0000E6E7FFE7286820F001002860FEF7A2FE64
:101B1000824605E0FEF79EFEA0EB0A00022895D85B
:101B200028684007F6D42078C0065FD5D9F80000B1
:101B3000DFF898B2396800F03800ABF1040B0828E0
:101B400012D0182805D101F0030000E0EAE00128D6
:101B50000AD0E0690028286838D040F0800028606A
:101B6000FEF778FE824623E02868C00523D5E069A9
:101B7000802876D11FE0206A202821D0316821F00A
:101B8000F84141EA8060306030E000BF94F82010F6
:101B9000DBF8002022F07C5242EA0161CBF8001011
:101BA00024E000BFFEF756FEA0EB0A00022896D8FC
:101BB0002868C005F6D5FEF0A7FD4045E6D8DAE76F
:101BC000306820F0F84040F08040DCE720F08000F2
:101BD0002860FEF73FFE064605E000BFFEF73AFE2E
:101BE000801B02289BD82868C005F7D420780007FE
:101BF00029D576486169643000298046016811D092
:101C000041F001010160FEF725FE064605E000BF38
:101C1000FEF720FE801B0228C9D8D8F800008007F4
:101C2000F6D510E021F001010160FEF713FE064633
:101C300005E000BFFEF70EFE801B022872D8D8F820
:101C400000008007F6D42078800623D5A0690028FC
:101C5000286810D040F480502860FEF7FBFD06464F
:101C600005E02CE1FEF7F6FD801B02285AD8286813
:101C70008004F7D50EE020F480502860FEF7EAFDDE
:101C8000064604E0FEF7E6FD801B02284AD82868D5
:101C90008004F7D4207840074FD5DFF83481D8F896
:101CA000001041F48071C8F80010FEF7D3FD06461D
:101CB00005E000BFFEF7CEFD801B642832D8D8F8BF
:101CC0000000C005F6D5414EA068603601280AD054
:101CD00008B1052813D0306820F00100306030686A
:101CE00020F0040002E0306840F001003060A0689D
:101CF00041F2883A90B1FEF7ADFD80460AE03068C7
:101D000040F004003060EEE7FEF7A4FDA0EB080110
:101D1000514507D830688007F6D50EE0FEF79AFDEA
:101D2000804607E084E000BFFEF794FDA0EB0801C9
:101D300051457DD830688007F6D4606AF0B3DFF88B
:101D40008C80D9F8001008F12008C1F3C2010329E2
:101D50006FD00228286820F08070286003D0FEF73A
:101D600079FD044680E0FEF775FD064605E000BFFC
:101D7000FEF770FD801B022873D828688001F7D415
:101D8000E26A40F2F331386854F8283F884340EA69
:101D9000021018433860217B4FF4FE0C22894FF06B
:101DA000FE47208A4902267D521E401EA1F5007181
:101DB00089B20CEA0040C2F3080200E081E011435E
:101DC000761E0143014807EA066203E01044025808
:101DD000004802581C3011433B4AC8F80010016803
:101DE00021F00101016011684FF6F876236AB143D2
:101DF00041EAC30111600168A26921F00C0111439D
:101E000001600168E26921F002011143016001688B
:101E100041F480310160016841F4003101600168E2
:101E200041F480210160016841F00101016001E09D
:101E300017E01DE0286840F080702860FEF70AFD7A
:101E4000044604E0FEF706FD001B022809D82868B6
:101E50008001F7D535E000BFFEF7FCFC001B02282F
:101E600002D90320BDE8F09F28688001F4D428E05F
:101E700039680128D8F8000021D0A26A01F00303D4
:101E800093421CD1E26AC1F305118A4217D1216B3A
:101E9000C0F30802491E8A4211D1616BC0F3462289
:101EA000491E91420BD1A16BC0F30642491E9142DB
:101EB00005D1E16BC0F30660491E814201D00120CB
:101EC000D0E70020CEE700003444025810B50446A5
:101ED00000688069C00707D0204600F01DF8206820
:101EE000416941F00101416110BD10B5044690F80F
:101EF0002C00022804D094F82C00012801D00120E5
:101F000010BD022084F82C002068FEF704FB01209D
:101F100084F82C00002010BD7047000070B5044606
:101F200090F82C000D46022804D0012803D0052883
:101F300001D0012070BD022084F82C002068FEF042
:101F40005EF92868022805D05FF0010084F82C00B3
:101F5000002070BD0520F9E77047704710B50400F8
:101F600003D094F83D0010B107E0012010BD00201F
:101F700084F83C002046FEF0FAFF022084F83D0081
:101F80002068211D00F0D2FB012084F8480084F86D
:101F90003E0084F83F0084F8400084F8410084F853
:101FA000420084F8430084F8440084F8450084F833
:101FB000460084F8470084F83D00002010BD000072
:101FC00090F83D10012901D0012070470B4A0221F1
:101FD00080F83D100168CB6843F00103CB600068D6
:101FE00081681140062906D0B1F5803F03D0016811
:101FF00041F001010160002070470000070001006E
:102000007047704770B5044690F87C0001281DD0D9
:10201000012284F87C202420C4F880002068056810
:10202000026822F0010202602068826822F06042A9
:102030000A4382602046FFF0F3FC22682021002042
:102040001560C4F8801084F87C0070BD022070BD5B
:1020500010B5040003D0D4F8800010B107E00120CF
:1020600010BD002084F87C00204600F027F82420D2
:10207000C4F880002068016821F001010160204659
:1020800000F01AFC0128EBD0A06A10B1204600F045
:10209000AFFB2068416821F490414160206881686D
:1020A00021F02A0181602068016841F0010101608E
:1020B0002046BDE81040FFF0E5BC000070B586B0DA
:1020C000044614216846FDF0E6FF1C49206888425A
:1020D00031D11B48016841F480110160006800F4AF
:1020E0008010059016480838016841F0040101602D
:1020F000016801F004010591016841F008010160E7
:10210000006802250024694600F0080005900826B2
:10211000E8020090CDE901540A48CDE90346FEF0FB
:10212000DBF904200090CDE9015407486946CDE968
:102130000346FEF0D1F906B070BD0000005000402B
:10214000E844025800080258000C02582DE9F041FA
:102150000446006890460E468069C043C00635D4E8
:102160000025202720688069C043800616D5701C92
:10217000F8D0FEF76FFBA0EB0800B04201D8002EAC
:10218000F0D1606C84F8405040F02000606484F826
:10219000417084F842500120BDE8F0812168102090
:1021A000C8612068C7612046FFF055F820680849DB
:1021B00042680A404260606C40F00400606484F849
:1021C000417084F8425084F84050E4E70020E3E78F
:1021D00000E800FE70B50068C1F30901074E41EA4E
:1021E0000241049C4FF480654268194305EA545546
:1021F0003543AA4321430A43426070BDFF63FF0396
:102200002DE9F0410025904620260F46044626E0A1
:10221000424639462046FFF799FF80BB2068806917
:10222000C043800614D420688169C943490701D49A
:10223000218DC9B91349C661206842680A404260CD
:10224000656484F8416084F8425084F8405016E098
:10225000FEF700FBA0EB0800B84208D83FB12068A9
:102260008069C0434007D3D40020BDE8F081606C92
:1022700084F8405040F02000606484F84160012000
:10228000F3E7000000E800FE70B516460D46044670
:102290000DE0324629462046FFF758FF08B10120DD
:1022A00070BDFEF7D7FA801BA84207D835B1206869
:1022B0008069C0438006ECD4002070BD626C0020B1
:1022C00084F84000202142F02002626484F841102A
:1022D00084F84200E3E770B516460D4604460FE069
:1022E000324629462046FFF731FF08B1012070BD74
:1022F000681C05D0FEF7AEFA801BA84207D835B19E
:1023000020688069C0438007EAD4002070BD626CF9
:10231000002084F84000202142F02002626484F80A
:10232000411084F84200E1E70148FEF08FBB000055
:10233000D0020024104801220E4B002110B503608A
:10234000C0E90112C1608161C161C0E91112C164BB
:10235000016541658165C165FEF020F808B172B67E
:10236000FEE705480121FEF74DF9002801D072B6BD
:10237000FEE710BD001000521C020024F0B58DB025
:1023800034216846FDF087FE25480024234A2E218B
:1023900000F11C0E40F24E334FF4FC7640F27637DB
:1023A00002601822446040F2022C84600125C4605F
:1023B00004618EE8CE10C0E9054580F8344080F80D
:1023C000354080F83640FEF75FFB08B172B6FEE795
:1023D0004FF4487004954FF4F071FF22CDE90040AE
:1023E000CDE90241CDE9052405260994CDE90A018C
:1023F0004FF480630A48CDE907368DF8304000225B
:102400008DF8314069468DF83240FEF0F5FA00282B
:1024100001D072B6FEE70DB0F0BD00000010005014
:10242000D002002406F0F6BBFEE700002DE9F047DD
:10243000454D044689464FF0000A2868C04380078E
:102440000AD0414E283E306820F080603060FEF7B0
:1024500001FA0746B04608E00120BDE8F08700BF5A
:10246000FEF7F8F9C01B022867D8D8F80000000171
:10247000F6D4206829684FF4FE0721F47C313E022F
:1024800041EA00302860207AA389B4F804C04002F1
:102490002D4D2D495B1E227CACF1010C1035091D20
:1024A000A0F5007080B2521ECCF3080C07EA03437B
:1024B00040EA0C00184306EA0262104328600868EC
:1024C000626920F0C000104308600A68A06922F029
:1024D000200202430A60281D0A6822F010020A60E6
:1024E00002684FF6F873E4699A4342EAC402026054
:1024F0000868B9F1000F40F010020A6011D00868B6
:10250000B9F1010F11D040F400100860D8F80000B4
:10251000444640F08060C8F80000FEF79BF905468D
:102520000DE0086840F40020EFE740F48010ECE78D
:10253000FEF790F9401B022801D903208DE720689F
:102540000001F5D5504688E728440258FFF76AFF96
:10255000012004F11FFAFBE7F0B5CBB04C212FA806
:10256000FDF099FD202142A8FDF095FDBC216846B3
:10257000FDF091FD0220FEF00FFB2F4800242F49B3
:10258000026842F44042026002680A6842F00102B6
:102590000A60096801F001014A9101688904FCD5CB
:1025A000274802250168012208261304052721F087
:1025B0000301891C01603895C020CDE93957CDE968
:1025C0003B053D952FA83E95CDE93F644194CDE96B
:1025D0002F23FFF7F7F908B172B6FEE740204494C5
:1025E00003270201CDE945603F21CDE94702CDE94E
:1025F00042170421499042A8FEF7E6FF08B172B6DF
:10260000FEE71048332100901922CDE90A150DA9E3
:1026100009974FF440630C95684681E81C001194BB
:1026200010941D942094FEF771FB002801D072B61F
:10263000FEE74BB0F0BD0000184802582C040058CB
:10264000284402580A0000212E48F0B52E4A01689D
:1026500041F470010160106800F00F00072804D2F7
:10266000106820F00F00C01D106028490020274C82
:1026700010340B68264D43F001030B6020600B689B
:102680002B400B60136803F00F03072B04D913686A
:1026900023F00F03DB1D13601C4C1E4A18341E4B25
:1026A000261D371D2060194C1C4D28343060261D16
:1026B0003860371D23603B1D35601C1D3A60251DA9
:1026C0002E1D1860331D22602860326018600A6871
:1026D0000E4B134C22F4802260330A60186020688D
:1026E0006FF30F00B0F1005F03D20E490120C1F873
:1026F000080143F2D2000C49024B4A03803B0860B8
:102700001A60F0BD88ED00E000200052004402583D
:102710007FEDF6EA80020101000202020000FF01E3
:102720000010005C00800051004000522DE9F0478D
:10273000274B4FF0804A274D02689842264E274F7C
:10274000274C09D0504507D0A84205D0B04203D04D
:10275000B84201D0A04205D1D1F804C022F07002E5
:102760004CEA0202DFF87CC0DFF87C809842DFF898
:102770007C900FD050450DD0A8420BD0B04209D06C
:10278000B84207D0A04205D0604503D0404501D0F3
:10279000484503D1CD6822F440722A434D6922F0A6
:1027A00080022A43026098428A68C2620A68826292
:1027B00007D0A04205D0604503D0404501D0484530
:1027C00001D10969016301214161BDE8F087000081
:1027D000000001400004004000080040000C0040E0
:1027E0000004014000400140004401400048014015
:1027F00090F82810C90706D00168C36A4A6822F415
:1028000000321A434A6090F82810890706D50168FB
:10281000036B4A6822F480321A434A6090F8281009
:10282000490706D50168436B4A6822F480221A439F
:102830004A6090F82810090706D50168836B4A683A
:1028400022F400421A434A6090F82810C90606D5BF
:102850000168C36B8A6822F480521A438A6090F838
:102860002810890606D50168036C8A6822F4005294
:102870001A438A6090F82810490611D50168436C04
:102880004A6822F480121A434A60416CB1F5801FF5
:1028900006D10168836C4A6822F4C0021A434A6078
:1028A00090F82810090606D50168C26C486820F423
:1028B00000201043486070472DE9F04304468068CB
:1028C000D94F87B02268D4E90465E369616E30436B
:1028D00016681D432843D54B002501433E400E4357
:1028E00016602068E268416821F44051114341605C
:1028F0002268A1699A4201D0206A01439668DFF8F4
:1029000030C3CC4FCC4806EA0C060E4396602168D3
:10291000666ACA6A22F00F023243CA622268BA4269
:102920000ED1006800F03800182873D047DCB8B327
:10293000082879D010286FD178E028287ED17BE054
:10294000BE498A4209D1006800F00700062875D206
:10295000DFE800F0546A6C6E7072B9498A4209D19E
:10296000006800F00700062868D2DFE800F0475D45
:102970005F616365B3498A4209D1006800F00700CE
:1029800006285BD2DFE800F03A5052545658AE4960
:102990008A420BD1006800F0070006284ED200E002
:1029A00010E0DFE800F02B4143454749A7498A4240
:1029B0000AD1006800F03800182839D0B7DD202887
:1029C000BBD13CE001203AE0A1498A4209D100682C
:1029D00000F00700062831D2DFE800F01026282A90
:1029E0002C2E9C498A420BD1006800F00700062873
:1029F00024D2DFE800F003191B1D1F2100201EE078
:102A00009A421BD18C48001D006800F00700062880
:102A100014D202E00CE007E010E0DFE800F003056C
:102A200007090B0D02200AE0042008E0082006E058
:102A3000102004E0202002E0402000E080208649B1
:102A4000DFF818829A42864A4FF400434FEA211772
:102A50004FF000064ED110281AD006DC022809D00B
:102A600004280BD008287DD10DE020283ED0402836
:102A700078D13DE0FEF0BAF8014610E06846FEF07D
:102A8000C7F801990BE003A8FEF064F9049906E089
:102A90001068800604D51068C0F3C100C140C1B3FE
:102AA000606A676838F8102007EB4703B1FBF2F063
:102AB000834257D8B0EB073F54D800230846194645
:102AC000FDF09EFA0902020241EA106170084FEA25
:102AD000370010183A4671410023FDF091FA614A1F
:102AE000A0F5407191423DD821684CE03946D7E7C6
:102AF0001946D5E7D4F81CC04FF6EF799C4552D162
:102B000008281AD006DC60B101280DD0042829D18C
:102B10000EE039E0102815D0202840D040287CD184
:102B20003FE0FEF0E7F901E0FEF79EFE014610E00F
:102B30006846FEF06DF801990BE003A8FEF00AF973
:102B4000049906E01068800604D51068C0F3C1003F
:102B5000C140C9B1636A606838F81330B1FBF3F162
:102B6000490000E059E001EB5001B1FBF0F080B208
:102B7000A0F11001494550D84FF6F0732168C0F319
:102B8000420218401043C8600120A4F86A00A4F86B
:102B900068002846E666266707B0BDE8F083394638
:102BA000D8E71946D6E7082819D005DC58B101281E
:102BB0000CD0042831D10DE0102815D020282ED0BB
:102BC00040282AD12DE0FEF095F901E0FEF74CFEF9
:102BD000014610E06846FEF01BF801990BE003A8DF
:102BE000FEF0B8F8049906E01068800605D5106874
:102BF000C0F3C100C1400029C6D0636A606838F8DC
:102C00001330B1FBF3F101EB5001B1FBF0F080B2F6
:102C1000A0F1100149457FF667AF0125B4E73946B9
:102C2000EBE71946E9E70000F369FFCF000C005815
:102C3000FFF4FF11001001405444025800440040CA
:102C400000480040004C004000500040001401408B
:102C500000780040007C00400090D0031E781008EF
:102C600000440258FFFC0F00FEE7002809DB410981
:102C700000F01F028900012001F1E0219040C1F81D
:102C80000001704700280DDB410900F01F02890098
:102C9000012001F1E0219040C1F88001BFF34F8F86
:102CA000BFF36F8F70470000154830B58BB00078C8
:102CB000C00722D1124803F1FAFBF0B10020124AFA
:102CC0003F21079101230F49089004240A9002250F
:102CD0000990009506910390CDE90143CDE90402E6
:102CE0000A490C230A480F2201F064FD094A0A49E7
:102CF000FDF0ECF90248AFF300800BB0044830BDA2
:102D000098000024E0D610084895000880D60008F6
:102D1000CC500024000000083B2610080E4808B5DF
:102D2000016841F010010160006800F0100000909F
:102D300009485838016841F010010160016821F02C
:102D4000100101600649054808624FF0806005499E
:102D5000C1F8000108BD0000D4440258AD1B1008A2
:102D60001C02002408E000E02DE9F0470C46497FF2
:102D70000746FEF04BFFA17F06463846FEF046FFB1
:102D8000A17F05463846FEF055FFDFF85481024624
:102D9000608BA18A534FDFF85091401AC8F8400069
:102DA000608BA18A401AC8F81800208BA18A401AAB
:102DB000C8F81000C8F8342060694FEA3040C8F8FD
:102DC00044002069C8F83C006068C8F80C0020681E
:102DD000802827D006DC042870D020286ED0402818
:102DE00006D16BE0B0F5807F0ED0B0F5007F0ED03D
:102DF000207F46EA006040F40030C8F81C00607F85
:102E0000A17F884258D166E0207F384902E03749E7
:102E1000207F491E01EB0060C8F81C00E068C8F87C
:102E2000200052E0217FA06846EA016141F40031B0
:102E3000C8F81C10C8F82450011D2269C8F81420D5
:102E4000C8F82C106FF0FF0203784FF610714FF0A6
:102E5000010513F0FF0303D0012B09D0AFF300806D
:102E60004388D8F81C00884302EB032108430CE098
:102E7000237FFF2B00D100254388D8F81C0088430E
:102E800002EB0321084340F01000C8F81C00D8F8FA
:102E90001C0040F02000C8F81C0001E000F0FCFA23
:102EA000D8F81C008006F9D41020C8F808001DB11D
:102EB000C8F80070BDE8F08748460EE0207F46EA7B
:102EC000006040F40030C8F81C00C8F824502069A5
:102ED000C8F81400ECE740F20120C8F80000E9E768
:102EE0000010005201020200010201000A0002006B
:102EF00070B50C46897FFEF09DFE174948636269F4
:102F00004FEA32424A642269CA63628BA38AD21AA8
:102F10000A642268082A07D00022C8610A610F4AA1
:102F2000E06888630A6070BD638BA58A0C4A5B1BEE
:102F30008B61638BA58A5B1B0B614862207F02EB70
:102F40000060C861E0680862064822694A61226937
:102F5000CA60086070BD000000100052010203004A
:102F6000090001000102020000F0F8B9FEF040BFC4
:102F7000FEF050BF70B5061D43F2FC41451843F208
:102F800014540319036100F12C0200F1140186E8C6
:102F90002600114A02600846FFF084FD0F4940F800
:102FA000181BFFF07FFD0E49016043F2D041084439
:102FB000FFF078FD0B49251F40F8141B00F0F1F9D4
:102FC000401B411902462044FEF0D4FE051B28197F
:102FD000FEF02EFF284670BD5879100804841008B2
:102FE00038841008049F0008704700002DE9F04F56
:102FF00091B003F015F8B9490027C76340F8401BAA
:10300000FFF0A0FE2C30FFF09DFE2C30FFF09AFE6A
:10301000B34900F5BE72C76201606421078634308F
:1030200001F05CFFAF49016000F5367001F092FCE1
:10303000383001F003FFAC4904460160394607759A
:103040004775877501F0D8FB04F11800FFF0A8FD63
:10305000A64940F8441BFFF06DFBA54940F8501B02
:10306000FFF068FBA34940F8501B03F073F8A24936
:10307000A0F59B6400F1FC05A04AD1E90001C5E977
:103080000201C5E9002404F2E45042F6E06101F0D7
:1030900033FE00224FF4487A114604F140005346B3
:1030A0004FF4F0788146CDF8008001F1BAFB0022A0
:1030B0004E461146104602F00FFD0022B06204F1A8
:1030C0006C0053461146CDF80080804601F1A9FB03
:1030D000982246469920114602F0FEFC40F2BF2B92
:1030E000B06204F198005B46182206460F214FF4A7
:1030F000D47ACDF800A001F194FBFF2211461046CE
:1031000002F0EAFC0022B0621146104602F0E4FC34
:10311000F06201200146308604F1CC00029001F0FB
:1031200055FF029864220021FFF0B9FD0298182291
:103130000F215B46CDF800A001F173FB1620009033
:10314000029813231C220A21FFF0B7FB06200090EF
:10315000002302460298022101F00AFD0298B422DF
:10316000002101F0F3FE04F57D700121824601F09B
:10317000C1FDC5229721142002F0AEFC0146504645
:10318000FFF0DEFD1421504601F0CEFD0121504636
:10319000FFF002FD02985146FFF07EFB04F58760C8
:1031A0000121834601F0A6FD1421584601F03EFBA3
:1031B000DFF84CA1012203A95846CDF80CA0ADF8C8
:1031C0001020FFF0B2FA00221146104602F084FCF3
:1031D00001465846FFF0B4FD0298594601F088FCBC
:1031E00004F591600121834601F084FD14215846C5
:1031F00001F01CFB03A95846CDF80CA0ADF81070E7
:10320000FFF093FA00221146104602F065FC0146D9
:103210005846FFF095FD0298594601F030FC04F540
:1032200069700121834601F065FDC52297211420B4
:1032300002F052FC014604F57770824601F0DCFA98
:1032400051465846FEF03EFF0221584601F004FB6D
:1032500002985946FFF020FB04F59B6088228246C5
:103260004FF4367103F000FA0220ADF82C00012073
:10327000ADF8247009ABADF834000BAA50460DA987
:1032800000F177FC7D2000230322CDE900700721A7
:10329000504600F1C5FCFA225046142102F00EFF00
:1032A000B421504600F17BFD49462046C4F8D05574
:1032B00000F132FC4146204600F12EFC314620460A
:1032C00000F12AFC0299204600F126FC51462046D6
:1032D00000F122FC11B02046BDE8F08F10960008E6
:1032E000987A1008749900084C980008EC98000827
:1032F000A0970008107A10084095000894811008E3
:10330000389F000870470320704710B50446D0F876
:103310005401FEF0F1FD2046BDE8104000F0DCBB9A
:103320007CB514460D46684605F028FABDF8000045
:10333000002806D0BDF802002860BDF80400206017
:1033400001207CBD7047000003480068C00301D520
:10335000FEF034BC7047000014ED00E05A2010B5B8
:10336000FFF783FCBDE810405820FFF77EBC00004B
:1033700009480A49C268C2F30A02521E92B20A8080
:103380000369C3F30A035B1E4B800264416B41F087
:103390000101416370470000001000501800002434
:1033A000704700210160704710B50446FFF71CFE0E
:1033B0002068D4F80815C26A2046BDE810401047BE
:1033C0007047000070B500F540510C462DED028BA2
:1033D000D1F8C414491CC4F8C414CA0735D1CC3080
:1033E000054602F1AFFDD4F8C404B0EE408A00EE09
:1033F000100ADFED170AB8EEC00A20EE200A03F12A
:1034000061F8DFED141AF7EE000A88EE211A30EEAB
:10341000200A20EE010ABDEEC00A10EE104AFCF0B0
:1034200021FEB2EE040AC8EE000ABDEC028BBDEE2E
:10343000E00A10EE101A90FBF1F201FB12002118C5
:103440002846BDE87040FFF025BCBDEC028B70BD86
:103450000AD7A33CCDCC0C4030B5044C039D04608E
:103460000171C2800381458130BD0000A47910083C
:103470000148406805F058BA1C00002402484FF08B
:10348000FF31006805F078BA1C000024014800688C
:1034900005F04ABA1C00002405F0A2BA90F84430A6
:1034A000002B01D102F060BF704710B5FEF0A0FD07
:1034B0000168096BBDE810400847416070477047DC
:1034C0002DE9F74F84B0814605A804F001FD0028DE
:1034D0007ED109F1A805B9F8E8400AE0A0B205EBF1
:1034E000C00105A802F14EFE18B1A1B2284605F0B0
:1034F000C2FF641EF2D5B9F8E8604FF0000AD0466A
:10350000761E66D4B0B205A905EBC004204604F0CF
:10351000EBFC00287AD0BDF91400B4F90010884201
:1035200032DB05A802F129FE0746204602F125FEFE
:10353000874229DCBDF91600B4F90210884212DB7B
:10354000204604F0C0FCBDF91620BDF81A10801A00
:1035500000B2091A09B2ADF81A10002938DD10447A
:10356000ADF816004DE005A804F0ADFC0746204676
:1035700004F0A9FC874207DC6088BDF81610401AE9
:1035800000B2ADF81A003AE0BDF91600B4F9021025
:10359000884239DB05A804F096FC0746204604F073
:1035A00092FC874230DCBDF91400B4F90010884267
:1035B00015DB204602F1E1FDBDF91420BDF818101D
:1035C000801A00B2091A09B2ADF81810002901E0FA
:1035D00080E098E07EDD1044ADF8140011E005A80D
:1035E00002F1CBFD0746204602F1C7FD87420BDC06
:1035F0002088BDF81410401A00B2ADF81800002859
:1036000068DD4FF0010801E04FF0010A761E7FF5FA
:1036100079AFB8F1000F7FF46EAFBAF1000F72D03E
:10362000B9F8E8604FF00008761E6CD4B0B205A976
:1036300005EBC004204604F057FC58B3BDF9140054
:10364000B4F90010884226DC05A802F196FD074671
:10365000204602F192FD87421DDBBDF91600B4F948
:103660000210884205A808DC04F02DFC6188401A8D
:1036700001446180E188081A0BE004F024FC07464D
:10368000204604F020FC874205DBBDF81600618867
:10369000401AE0802FE0BDF91600B4F9021088420C
:1036A00027DC05A804F00FFC0746204604F00BFCBD
:1036B00087421EDBBDF91400B4F90010884205A84A
:1036C00009DC02F15AFD2188401A01442180A188B9
:1036D000081A0CE070E102F150FD0746204602F1A5
:1036E0004CFD874205DBBDF814002188401AA080FC
:1036F00001E04FF00108761E98D5B8F1000F8ED08A
:10370000B9F8E8604CE14EE1B0B205EBC00405A8A1
:10371000214602F137FD18B1B1B2284605F0ABFEE3
:1037200005A9204604F0E0FB0028EBD0BDF9140009
:10373000B4F900108842BDF91600B4F902107DDD1D
:10374000884233DDBDF816006188401A21880FFADF
:1037500080F8BDF81400401A06B205A802F10DFD6C
:103760000746204602F109FD391A05A801FB08FAAF
:1037700004F0A9FB0746204604F0A5FB381A704365
:10378000504508DCA4F806802088ADF81400BDF888
:1037900018003044D4E0A680BDF81A1001EB0800F0
:1037A000ADF81A006088ADF8160094E605A802F19D
:1037B000E4FC0746204602F1E0FC21888742BDF880
:1037C0001400A0EB01000FFA80F8204625DD04F07C
:1037D0007AFB064605A804F076FB301ABDF91610F0
:1037E00006B2B4F90200411A05A801FB08FA02F179
:1037F000C4FC0746204602F1C0FC381A70438245DB
:1038000008DC05A804F05FFB6080E6802088ADF846
:10381000140091E0A4F804805EE002F1AEFC0746DB
:1038200005A802F1AAFC381A07B2B9F8E80007287F
:103830000EDAD4F800B0D4F804A000E01CE005A82B
:1038400002F19BFC52462080A78068F30F02A3E0A0
:10385000B8450EDCBDF818102088ADF8140001EB57
:103860000800ADF8180005A802F187FC2080A780A9
:1038700031E6A4F8048026E0884231DA204602F1DD
:103880007CFC064605A802F178FC301A07B22046F7
:1038900004F019FB064605A804F015FB301ABDF923
:1038A000161006B2B4F90200BDF91420411AB4F999
:1038B0000000801A79437043814208DC05A8E68045
:1038C00004F001FB6080BDF81800384438E005A81A
:1038D000A78002F152FC2080BDF81A00304484E039
:1038E00005A802F14AFC0746204602F146FC874241
:1038F00033DA204602F141FC064605A802F13DFC00
:10390000301A61880FFA80F8BDF81600401ABDF928
:10391000141006B2B4F90000411A05A801FB06FA1A
:1039200004F0D1FA0746204604F0CDFA381A00FB1D
:1039300008F0504507DCE680BDF8181001EB0800E0
:10394000ADF81800C7E505A802F117FC2080A4F81F
:1039500004806088ADF81600BEE7BDF816006188E7
:10396000401A0FFA80F8204604F0ADFA074605A881
:1039700004F0A9FA381A07B2B9F8E80007281EDAE5
:10398000D4F800B005A8D4F804A0E78004F09BFAAE
:103990005246608068F31F425946284603F1FCFEF8
:1039A000761E7FF5B1AEB9F8E860082E20D2DDE9C9
:1039B0000512284603F1F0FE07B0BDE8F08FB845C8
:1039C0000EDCBDF81A106088ADF8160001EB080097
:1039D000ADF81A0005A804F076FA6080E7807AE571
:1039E000A4F80680BDF81A003844ADF81A0072E554
:1039F00000274FF0FF3A761E6FF0004B42D4B0B272
:103A0000741E05EBC008B8F80410B8F8060011FBE6
:103A100000F002902EE0002C03DBA0B205EBC00109
:103A200000E005A98888CA8810FB02F00390D8F846
:103A300000200092D8F8040001906846FFF0FEFCD8
:103A4000BDF80400BDF8061010FB01F1DDE902200D
:103A50001044CA17081A01EB5271B0EBE10F02DAF9
:103A60003746A2460BE0584503DA3746A24630B146
:103A70008346641EB4F1FF3FCDDA761EBFD5BAF19E
:103A8000000F06DAB8B205EBC00105A8FFF0D6FCBE
:103A900012E01FFA8AF005EBC004B8B2214605EB2C
:103AA000C0000646FFF0CAFC0598206006986060DA
:103AB0003168059170680690B9B2284605F0DBFCC4
:103AC00009E5000003484068002802D00268D26976
:103AD00010477047500100242DE9F041374D04464E
:103AE000A86808B1017A19B194F8351131B114E020
:103AF000002184F835110168896859E068B1007ABD
:103B000058B1686810B1016809698847A8680168F8
:103B1000C9688847012084F8350100260BE0A01908
:103B200090F8880030B1B1B2201D50F82100016832
:103B3000C96C8847761CB4F88400B042EFDC0022E0
:103B4000104613E0211891F8883073B190420BD0E1
:103B500086B2231D53F8267096B243F82670A31838
:103B600091F8881083F88810521C401CB4F8841017
:103B70008142E7DC13E0581E80B2211D83420ED93A
:103B800005E001EB80035B6841F82030401CB1F890
:103B900080308342F5DC98B2401EA1F88000B4F872
:103BA00084309342E7DC6868002804D00168496AE1
:103BB000BDE8F0410847BDE8F08100005001002455
:103BC00003484068002802D00268126A1047704714
:103BD000500100242DE9F04F99B0044680F83411CB
:103BE00029B10020A4F8E80019B0BDE8F08F04F571
:103BF000967004F06DF990B9D4E94B1204F5807514
:103C00002046FFF75DFC0020009003460246014677
:103C100001A8FFF05EFC0168E96240682863B4F81F
:103C2000E80098B10020FD4F80F00105386920B10F
:103C300007F1140004F04CF950B1002DD4D001A8C4
:103C400003F1BAFD3E8804F1A80520E00120EAE76F
:103C5000F2481430FEF0F2FFD7E905122046FFF7D4
:103C60002FFC0020009003460246014601A8FFF009
:103C700030FC016879614068B861E0E705EBC60097
:103C80000168426801A803F187FD761CB6B2B4F85A
:103C9000E800B042F2D8E148068804F1EA00169044
:103CA00009E0169800EBC600016842682046FFF75D
:103CB00007FC761CB6B2B4F82A01B042F1D8DFF89E
:103CC00060A3DAF8000090F84800012804D0022828
:103CD00077D0D2480688BCE1DFF840B30026BBF8B5
:103CE00000700CE0B8B205EBC000804604F0EBF8C1
:103CF000B04203DD404604F0E6F806467F1CB4F807
:103D0000E800B842EEDCC74800880F2801D9C00897
:103D100000E0012081460020009003460246014653
:103D200012A8FFF0D6FBD04653E0D1F89010884798
:103D3000074612A804F0C7F84844B8420BDDB74262
:103D400009DA12A804F0BFF8B8423BDD12A804F06B
:103D5000BAF8002836DD12A804F0B5F8B84201DC44
:103D6000BE4200DA374612A804F0ADF83F1A12A896
:103D700004F0A9F8024638B20090AB480021008850
:103D800003B217A8FFF0A5FB0168129140681390D9
:103D9000BBF8007010E005EBC70112AA14A804F0EC
:103DA000E0F814A804F094F820B9206814A9426B34
:103DB000204690477F1CBFB2B4F8E800B84208D94B
:103DC000E9E711E0D8F800000168D1F88C20012162
:103DD000904712A804F077F8B042D8F800000168C4
:103DE000A3DB096A884738E190480078012879D038
:103DF0000DE18A484FF00008B5F900600088401CCA
:103E000087B226E005EBC000814602F1B6F9824692
:103E1000B9F906B005EBC700814602F1AEF950458D
:103E2000514606DDB9F90060B846084656450ADB3A
:103E30000DE00AD1B9F90610594500DDB846B9F9C7
:103E40000000B04203DB064601E0B042FBDC7F1C11
:103E5000BFB2B4F8E800B8421FFA88F0D2D805EB38
:103E6000C0073868129078681390BDF94C00142888
:103E700001DABDF9486012A802F17FF9801BADF8A4
:103E80004C0012A8ADF84860FEF0B0FE12A804F095
:103E90001FF838BBBDF94E00142800DD1420BDF812
:103EA0004C3081B25E48BDF84A2000680091BDF8F0
:103EB00048100668D6F88460B0470646ADF84E0054
:103EC00012A8FEF0BBFE206812A9426B2046904764
:103ED000B888801B00B2B88020B91FFA88F1284644
:103EE00005F0C9FAB4F8E800002882D1B5E04FF037
:103EF0000009284603F0E7FF064648480088401CB2
:103F000087B228E005EBC00005EBC708B0F902A0B6
:103F1000B0F90410B8F90200504508DAB946404635
:103F200003F0D1FF504551460CDD0E4611E00DD196
:103F3000B8F90400884200DDB946404603F0C3FFEB
:103F4000B04206DC404603F0BEFF01E0B04200DABA
:103F500006467F1CBFB2B4F8E800B8421FFA89F0E9
:103F6000D0D805EBC007B7F90600142803DA3846A5
:103F700003F0A9FF0646384603F0AAFFF0BB12A8DB
:103F8000FFF0AEFA3888ADF84800B7F90200ADF896
:103F90004A00B988301A1428ADF84C1000DD1420FE
:103FA00086B2384603F08FFFBDF94A10401AB0427E
:103FB00005DC384603F087FFBDF94A10461A184859
:103FC000B1B2BDF84C30BDF84A2000680091BDF890
:103FD00048100668D6F88460B047ADF84E0012A9C4
:103FE0002068426B204690477888BDF84E10084400
:103FF0007880F888BDF84E10401A00E007E000B263
:10400000F88020B91FFA89F1284605F034FAB4F88F
:10401000E80000287FF46BAF1FE00000500100248F
:10402000C4010024BC010024BA010024B40100240E
:1040300005EBC600016812914068139012A803F0C6
:1040400047FF20B9206812A9426B20469047761C92
:10405000B6B2B4F8E800B042EAD80D4800780028BB
:104060003FF4C2AD0020A4F82A010A48048809E000
:1040700001A800EBC40001684268169803F18CFBAC
:10408000641CA4B2BDF84400A042F1D8ACE5000025
:10409000B501002450010024704700003EB50446DD
:1040A000084800221146008800B2009006480088A7
:1040B00003B201A8FFF00DFA206801A9426B204667
:1040C00090473EBDBC010024BA010024F8B5174951
:1040D00000250160A0F88450A83003F16DFB423048
:1040E00003F16AFB0023009542301A461946FFF09F
:1040F000F0F90572A0F5967445720D490D48FCF76C
:10410000B3F900B101200C4E08B1358006E04FF440
:104110008060308002207060FFF002FDF560204674
:104120007560B560FDF07EFF2046F8BDB8791008D7
:10413000CDB5E8B5C2A507F45001002410B526217D
:104140000446FBF0A8FF0E482060201DFFF0C8F9D0
:104150000830FFF0C5F900218160C16001220161D2
:104160008182C18201764276064A40F80C2CC161F8
:1041700047F6FF710184FF2180F822100C3810BD32
:10418000AC8110082497000830B5044C039D0460EE
:104190000171C2800381458130BD0000FC791008A7
:1041A000012101727047704770B51C460B46A1F59E
:1041B000C06605460498B6F5407F216805D20A46D8
:1041C0000146284600F06CF913E0A2F560637F2BEE
:1041D00005D80A460146284600F017F809E095F888
:1041E000590038B1A2F51060023803D12846FEF01C
:1041F000F0F82060206810B104F083F918B10020B5
:1042000085F8590070BD0120FAE72DE9F05F5FEAFB
:1042100002088B4604464FF0000921D098F80D00A3
:1042200004F1440A98F8071000F01000B8F80450A0
:1042300041EA0016A5F63161F7101E2953D2DFE8D6
:1042400001F0185252181818184141415252525256
:10425000525252525252525218181818181818180E
:10426000A4F852904846A4F85490A4F85690BDE89B
:10427000F09F04F11A0005F0DFF840F63361884240
:1042800008D1DBF80000C2685846904702F1B5F843
:10429000A4F85200F119B4F852000E220844414625
:1042A00024F8520F5046FCF779F8B4F90010504644
:1042B00001F1E6F914F8050C2179401A04F8050C0F
:1042C0005046D4E70E2241465046FCF767F834F8D2
:1042D000540FC01B01B2504601F1D2F92088F119E8
:1042E000401A2080ECE7A5F560601B3822D0A5F5C8
:1042F00060601D381ED0A5F560601F381AD040469A
:1043000002F17BF8A4F85200A5F56060093840F688
:10431000136A21D055451FD0A5F5606019381BD010
:10432000A4F85690404602F168F8801BA4F85400A7
:1043300040469CE76D1E5A46ABB24146204601F10D
:104340002DFB02F15AF8A4F85200404604F0D9F8C7
:10435000810801EB501012E0404604F0D2F85545B8
:10436000074602D140F60C6500E06D1E5A46ABB21E
:104370004146204601F112FB04F0C3F8381AA4F8B4
:104380005600CFE770B500F11A06054613E0288FF6
:1043900005F13204B8B1A188401E34F81110E08054
:1043A000A088401C80B2A080022801D3801EA0807B
:1043B000304603F149F9288F70B1304603F11CFAF9
:1043C0000028E4D008E0AFF300802846FEF03BF878
:1043D0000146304603F138F9304603F10DFA002862
:1043E000F3D070BD70B50546C06B58B305F11A0027
:1043F000044605F021F828B32846FDF0FDFFE08AC9
:10440000012812D9A08A401C80B20A2800D30A3899
:1044100040F63F16214634F81000B04212D108464B
:1044200005F00AF8E18A012901D8AFF30080A18ADA
:10443000491C89B20A2900D3002124F81100A08A5E
:1044400024F810602846BDE87040FDF00ABF2DE951
:10445000F84F1E4615460C4607461A30DDE90A9805
:1044600004F0EAFF824621463846FFF7BBFF04000E
:1044700012D0286843464A462146D0F808C028464C
:10448000E047306033462246514638460095FFF7F4
:104490008BFE2046BDE8F88F00203060F9E7000071
:1044A0002DE9F047924F160004460AD0727BF0794E
:1044B00002F01002B18840EA0215042D0ADDA810AE
:1044C00009E0A4F85270A4F85470A0F85670104691
:1044D000BDE8F087012040F2DB6399428046A1F2FB
:1044E000DB6004F1440912D048DC40F2536291428F
:1044F000A1F253600BD020DC40F219629142A1F28C
:10450000196079D004DCA1F5C26108297ED873E076
:10451000352871D008DC012805D032286CD033282A
:104520006AD0342872D199E0362865D037286ED009
:10453000382861D0392869D15EE00A285CD008DCCF
:104540000A2863D2DFE800F0BD588A8A58585858C4
:10455000588A832850D008DC0B284DD00C287DD0F9
:104560001D2849D0212851D146E0842844D08528EF
:1045700042D0862840D0872848D13DE0B0F5047F5E
:104580003AD029DC102837D00BDCA0F104000C282D
:104590003CD2DFE800F03131313163319696313170
:1045A000966340F20B229042A0F20B2156D00ADC17
:1045B000112821D0122851D0A0F5007009381BD045
:1045C00001287ED118E0012916D0022914D0032930
:1045D00044D0042975D10FE0A0F21120132870D225
:1045E000DFE800F00A3C3C3C0A0A3C0A0A0A3C0AA2
:1045F0000A3C3C0A0A0A0A00B4F95200B8420CD13B
:10460000B4F95400B84208D1304601E059E025E041
:1046100001F1F3FEA4F852002BE00E223146484689
:10462000FBF7BCFEB4F95600B84208D0304603F0A0
:1046300061FF94F85610A1EB500084F84D00B4F9D6
:104640005200B84204D0284401B2484601F118F89B
:10465000484601F1D2FEA4F852002DE0B4F9520010
:10466000B8420AD1B4F95400B84206D1304601F13B
:10467000C4FE401BA4F8540037E00E2231464846E1
:10468000FBF78CFEB4F95600B84208D0304603F070
:1046900031FF94F85610A1EB500084F84D00B4F9A6
:1046A0005400B84205D0A0EB080001B2484600F122
:1046B000E7FF484601F1A1FE401BA4F8540048461C
:1046C00006E7304601F199FEA4F85200401BA4F819
:1046D00054005234304603F00DFF40000521B0FB7A
:1046E000F1F096F909100844A0803046F0E6000089
:1046F0000080FFFF2DE9F05F8A469B465245164633
:1047000000F11A04804624D9A6EB0A001FFA80F9AA
:1047100000271CE0E18A08F13205204631B3491E2A
:1047200089B2C18204F079FE0146E888401C022863
:104730001CD8E880A888012801D2801CA880A888FD
:10474000401E80B2A8807F1CBFB225F810104F45D4
:10475000E0D35146204604F078FE15E0761EE08A4C
:10476000B6B2401C0A283BF8161001D9AFF30080FE
:10477000E082A08A012801D20A30A082A08A401ECD
:1047800080B2A08224F81010002EE7D14046BDE888
:10479000F05FFFF7F7BD7047406801680968084798
:1047A00010B5FEF76BFEBDE81040FDF00BBC0168D4
:1047B000496C08472DE9F04F87B08146DDE9178C39
:1047C000DDE91367DDE911451098DDF864B0DDF827
:1047D00058A08DE8F111484600F116FF0549159AD9
:1047E00040F8181B80E8040C1A99C16007B018380B
:1047F000BDE8F08FFC7A10080A0C02750A0A4275AF
:104800008175704710B50446D0F83C0100280CD0E3
:104810000168C9688847002807D0D4F83C010168BE
:10482000896888470020C4F83C0110BD10B50446D3
:10483000084602F1ADFF216B484302F1A9FFA063D6
:1048400010BD704730B5DDE90345416002720C30A0
:1048500080E8380030BD704780F8341070472DE98B
:10486000F0430546406987B00C46D0F8148095F8AF
:10487000340004F013FE074622464146284601F163
:10488000FFFA064622464146284603F07EF90246D4
:10489000334601A82946009703F04CF9002C17DD98
:1048A000601E414602B22846164601F1E9FA8146E9
:1048B00032464146284603F068F902464B4603A8B3
:1048C0002946009703F036F903A901A8FEF0B6FDCA
:1048D000404601F114F9401EA04217DD641C414618
:1048E00022B22846164601F1CBFA0446324641462A
:1048F000284603F04AF90246234603A829460097B2
:1049000003F018F903A901A8FEF098FD404601F153
:10491000F9F80646404601F136F90446404601F1F1
:1049200001F90021024605A823460096FEF0D1FDBC
:1049300001A9024603A803F014FBDDE90301CDE958
:104940000101286801A902692846904707B0BDE81F
:10495000F083000010B5FEF0B9F8034901600221B0
:1049600080F8341010BD00006C9800082DE9FC415F
:104970001B4C0546D5E90060A16969B3A06801EB4D
:10498000D17101AF00EB6100CDE90070A3692A6825
:10499000E169206800F026F800970646A3696A6876
:1049A000216A606800F01EF80644D4E9051000EBA7
:1049B000D07001EB6000CDE90070A3692A68616ADC
:1049C000E06800F00FF800978046A3696A68A16A62
:1049D000206900F007F84044C5E90060BDE8FC81AB
:1049E000F45000242DE9FE475FEA00081D461746F3
:1049F0008A460B9C4FF001064FF0FF3005D5216829
:104A0000C8F10008064649422160002F04DA2168F7
:104A10005742764249422160002D4FF0010901DAE8
:104A20005D4281463846FDF0B7FE03463A4602A88D
:104A30005146CDE900504046FDF0C8FE21684E4584
:104A4000029A114491FBF5F2104491FBF5F205FB3B
:104A50001211216000D04042002E03DAC1F10001A2
:104A6000216005E003DD002907DA294403E004DAC8
:104A7000002902DD491B2160401EBDE8FE8738B5D4
:104A800004460D46603000F1E3FDB4F96A000022EF
:104A9000B4F96830114600902846FFF0C2FE38BDD8
:104AA0003EB5044648890D4602AA218F401A01B23C
:104AB0002068D0F8B03020469847002817D02879D1
:104AC000002814D1D4F82401002810D00168C96846
:104AD000884700280BD0BDF808006A46ADF80000F2
:104AE0000195D4F8240101688B68214698473EBDA2
:104AF00038B504460D46E43000F1AAFDB4F9EE00E5
:104B00000022B4F9EC30114600902846FFF089FEEF
:104B100038BD3EB5054608790C46022824D0E08809
:104B200002AA298F401A01B22868D0F8B03028466E
:104B30009847002818D0207908B1012814D1D5F859
:104B40002001002810D00168C968884700280BD0D0
:104B5000BDF808006A46ADF800000194D5F82001C0
:104B600001688B68294698473EBD343003F0F1BB9D
:104B700010B5029CA0F81011A0F81221A0F8143171
:104B8000A0F8164110BD70B5D0F8E0400D460646BD
:104B900005E020682946426F20469047A469002C12
:104BA000F7D1D6F80C4105E020682946426F20462F
:104BB0009047A469002CF7D170BD0021A0F81A110C
:104BC00070470000F8B50E4602F0F0FA22490125C0
:104BD000C5620160FF2180F83010343002F0E6FA3F
:104BE0002C3002F0E3FA2C3002F0E0FA2C3002F024
:104BF000DDFA2C3002F0DAFA00278785C785A0F1AC
:104C0000E4040786A0F1B00147868686C786078739
:104C1000C7630764204600F11BFD04F1B80120467C
:104C200000F116FD04F16001204600F111FD04F1D0
:104C30008C01204600F10CFD04F1E401204600F156
:104C400007FD002320461A4619460097FDF035FE61
:104C5000204684F82450F8BD307C1008704710B509
:104C60000446D4E90320801A002801DCA368184414
:104C700001280DD9606800EB42101F22FBF78EFB64
:104C8000D4E90210401C814200D8401AE06010BDF7
:104C9000AFF3008010B504460068016820468847DD
:104CA00008B1AFF300802069A168401C814200D8A0
:104CB000401A206110BDD0E90321891A002901DCC6
:104CC00080680144012901DC012070470020704701
:104CD000D0E90310814201D10120704700207047C4
:104CE000034B0360C0E901120021C16001617047FC
:104CF000989A000801637047014AC2E900017047B1
:104D00009001002401488068704700009001002451
:104D10000148C06870470000900100240148006904
:104D2000704700009001002410B50446084602F1C7
:104D30002FFD216B484302F12BFDA06310BD012024
:104D40007047009808704B708A7070472DE9F04FDB
:104D500085B004461344DDE90E6003EB4303DDF840
:104D600040805D1800EB400000EB050BB4F9040037
:104D70001044E060B4F90600304420612068C16846
:104D80002046884700284CD004A80090206803AB38
:104D900001AA02A906692046B047D0B3207A9DF83F
:104DA000101010FB01F000F05CFE98F8001010FBF2
:104DB00001F000F056FEFF28064635D09DF80C1095
:104DC000C6F1FF07287895F8019011FB06F195F8D8
:104DD00002A010FB071080B200F043FE00909DF887
:104DE000040010FB06F019FB070080B200F039FE4A
:104DF00081469DF8080010FB06F01AFB070080B200
:104E000000F02FFE024620684B46466929462046A0
:104E1000B047E068ED1C08F10108401CE0605D450A
:104E2000B2D305B0BDE8F08F9DF80C00009020686B
:104E30009DF804309DF808204669E7E770B5044600
:104E4000144E0020FF21A080E08021721049E06014
:104E500021602061316891F8760008B1C86C00B912
:104E600088680168496A884701280DD000253068A4
:104E7000C06C30B10168496A8847012800D0002021
:104E800005431DB1204670BD0125F0E7AFF300805A
:104E9000BC9A0008C40100242DE9F041B0F91A5170
:104EA0000F460446C5B100262946681CA4F81A011D
:104EB0002068D0F8102120469047D4F8281141F8F6
:104EC000207016B12046FDF0A6FD29462046FDF0D3
:104ED00091FD2846BDE8F0810126E5E710B5FDF01B
:104EE00003FF0149016010BD5C7E100810B5044647
:104EF0000A48007800280FD001280DD12088A28808
:104F000010440A46401E2080A11C2046FDF084FE6D
:104F1000A088E188A180E08010BD0000B4010024D9
:104F20003CB5084A00251388074A1288ADF800509E
:104F3000ADF80430ADF80250ADF806206A46FDF039
:104F40006BFE3CBDBA010024BC010024C36A5A4375
:104F500059430368D3F8B830184770B50446006861
:104F60000D46D0F8082120469047D4F82C01294658
:104F7000401CC4F82C012068D0F80C212046BDE864
:104F80007040104710B59142044601D1AFF3008044
:104F90008A4202DA084611460246D4F840018842A5
:104FA00003D1D4F8440190420FD0C4E9501204F167
:104FB000600003F0CEF904F1340003F0CAF904F103
:104FC0008C00BDE8104003F0C4B910BD70B5C56ACF
:104FD0000446C162D0F834112A4602F065FDC4F8D7
:104FE00034012A46D4F83011204602F05DFDC4F8A1
:104FF000300170BD10B5FDF069FD02490022426329
:10500000016010BD649B0008704710B50446FCF0B9
:10501000B1FF60680168C9688847E068016889680D
:1050200088472068C16E2046BDE81040084790F8C8
:10503000771019B140680168096808470020704777
:105040002DE9FF4F89B0884604466846DDE91665BC
:10505000DDE91A97DDE918BA00F07EFDCDE90078A8
:10506000ADF814602046ADF81650ADF818B08DF8C4
:105070001C90FDF0B9FEDDE90B120346204602F05C
:10508000DBFE049010484089ADF81A0000F0D8F813
:105090000168496A88478DF81E008DF81D003EB1F1
:1050A00035B12068416B204688470099084201D1FC
:1050B000AFF30080CDF80CA0606801684A686946CB
:1050C00090470DB0BDE8F08FB401002410B5044640
:1050D000FDF067FE2068D0F8A0102046BDE8104023
:1050E0000847000010B504460C48407858B994F8B9
:1050F0004800022807D06068FFF74EFB18B16168CE
:10510000487A0028FCD0FEF7B9F90021204600F0CB
:1051100036F82046BDE81040FDF066BEB40100241C
:105120002DE9F04F89B0044612A81D4616468B465D
:1051300090E8800700F084F80168496A88470A4AC5
:10514000022101235289CDE907105946CDE90532E4
:105150008DE8A007206800223346856B2046A847CB
:1051600009B0BDE8F08F0000B4010024012180F8EF
:105170004B1080F8691070474FF6FF70704770B59C
:10518000044690F878000D46A84209D0012800D1C5
:105190003DB12068D0F8C0102046884784F8785088
:1051A00070BD2068D0F8BC10F6E781651C3001F0B6
:1051B00081BA012280F8741080F8752070470000D1
:1051C0002DE9FE430F460446806998460A99164623
:1051D00080B30022029202AACDE900120168324691
:1051E0000D683946A847154D8146A5F80A8000F09C
:1051F00027F80168496A88470E2818D2DFE800F0CE
:10520000070F1B1B1B1B1B1B1B1B1B1B1B1B688953
:10521000029906FB0070404201EB400006E06889FD
:10522000029906FB0070A0EB80000844E06348464A
:10523000BDE8FE83FFE7AFF300800000B401002467
:105240000448016891F8760010B1C86C002800D1BC
:1052500088687047C4010024FEB504460068D0F891
:10526000A41020468847594E002500287ED00120F2
:10527000FEF0E2F894F8660084F8670084F866505F
:1052800084F84B5094F8750030B12068D0F8B8100D
:105290002046884784F8755094F84A00616868B1E0
:1052A000002048720127F770FCF0A2FE01688A6BAB
:1052B0000121904794F8670010B103E00120F0E766
:1052C00084F86770FCF094FE01684969884754F8D7
:1052D000580F016809698847E07B401EC0B2E0733F
:1052E000217C583C09B10028ECD13079401C40B2F7
:1052F000307194F96410814214DC35716A46E068BB
:105300000168CB6801A998470028206806D0DDE92C
:105310000021D0F8B0302046984703E0D0F8B41010
:10532000204688478DF80850606950B10168CA6806
:1053300002A9904728B1A06D0168CA689DF80810BD
:10534000904704F11C00FFF063FB94F86C0068B315
:1053500020690168096988470746206F00B92767F7
:10536000206F1B49381A884220D900E024E02069C8
:10537000016889698847216F7A1A6421B2FBF1F2CA
:10538000B0FBF2F0002802DC84F8651008E0642825
:1053900002DB84F8655003E0C0F1640084F8650026
:1053A00020690168CA69002190472767FCF020FE48
:1053B00001688A6B002190472068D0F8A810204629
:1053C0008847012000F066FBF570FEBDB4010024A3
:1053D00000E1F50510B586B0044603A8CDE9031237
:1053E000FFF7C4FA039802A9ADF804000498ADF8D9
:1053F000080001A8FDF03AFC94F86B1004F11C00C1
:105400000029BDF8081016D089B20091BDF804102B
:105410008BB2B4F860108AB2B4F85C1089B2FFF0B5
:1054200069FA002805D0BDF90400E065BDF908005F
:10543000206606B010BD8BB2BDF804108AB2002100
:10544000FFF098FA012084F86B00ECE710B50446F1
:1054500090F86B0000280DD0B4F86000012183B2F1
:10546000B4F85C0082B204F11C00FFF083FA002063
:1054700084F86B0010BD2DE9FF4F8BB0064602A8E3
:10548000DDF87880DDE91F47DDE91C59DDE919BA4F
:1054900000F062FB0B2C08D0022C08D0FF2D02D3A9
:1054A000B9F1000F42D0042009E0802007E0FF2D71
:1054B00002D3B9F1000F01D0402000E0202002907B
:1054C0000C9803900D980490ADF81CB0ADF81EA098
:1054D0001B98ADF8200030468DF82450FDF084FC78
:1054E000189A03460E993046CDE9008702F0BEFCBB
:1054F0008DF82540BBF1000F0690ADF822808DF8A5
:10550000267009D0BAF1000F06D03068416B3046E2
:1055100088470299084201D1AFF3008070680168A2
:105520004A6802A990470FB0BDE8F08F0120C6E796
:105530002DE9F04786B004460EA8984691468A4663
:1055400090E8E000FFF77CFE0168496A8847084957
:1055500043464A464989CDE903108DE8E0002068BA
:105560005146456D2046A84706B0BDE8F0870000CB
:10557000B401002404460068816F204688472068F3
:10558000016F20468847FCF00DFD2068816EF8E72A
:10559000F0B52F4F0024DDE9056580C080E81E00CE
:1055A000046100F11801446101220483448384836F
:1055B000C4830484448484848C73343184628485F9
:1055C00080F8304044638463C463046480F84440DA
:1055D00080F8452080F8464080F8474084640C807D
:1055E0004C808C80CC8044658465C46580F86020E4
:1055F00080F8614080F8624080F8632080F8644061
:1056000080F8654080F8664080F8674080F8684020
:10561000C46680F8704080F8714080F8724080F86D
:10562000732080F87420001F0B4AAE4209491060B5
:105630000A4A0E800A4915800C700A490E800A49F0
:105640000D8001D2012100E0002180F83410F0BD6E
:10565000509C0008BA010024C4010024BC010024AD
:10566000B4010024BE010024C001002410B5002AAA
:10567000044688B018D0012A18D0022A24D0032A60
:1056800012D1B4F904000090C888B4F906306188DA
:10569000C01AB4F90020401A01B205A8FDF019FFA4
:1056A000016821604068606008B010BDB4F9040072
:1056B00000908988B4F90630081A2188401AB4F994
:1056C000021002B201A8E9E7B4F906000090CA8806
:1056D000B4F90430101A6288801A02B288882188CE
:1056E000C01A401A01B203A8D8E72DE9FF4F0026DF
:1056F0009B4681B0924689463446B046354621E005
:1057000000200090204600F0B9F900B9A0460198A9
:105710006B464A465946FCF039FE040014D00A2C68
:1057200012D0009868B1848802F0EBFE0746D9F8E1
:105730000000009A4146C36B4846984738443044BD
:1057400086B26D1C5545DBDB05B03046BDE8F08FF9
:10575000F0B5DDE90545DDE90767DDE909CE016062
:1057600004714771867182608581837380F80FC0F0
:1057700080F810E0F0BD2DE9FF4F95B0DDE9224A39
:10578000DDF8A080DDE92459504600F1F6FC1190C7
:105790002868417A1391007A12900020B4F90040F1
:1057A00006460D9007462798B8F1000F0F9006D0D7
:1057B000287C042805D001200F9908440F90002070
:1057C000DAE00220F8E700200C90304600F056F9AD
:1057D00000B90D96279988450EDB2868016849694C
:1057E00088470646286810AB0EAA0168D1F808C0A1
:1057F0003146E0470C900AE010A90EA80CABCDE9A9
:1058000000012A6849462698FEF721FE06463046E2
:1058100000F034F900281DD1002E7ED00A2E7DD054
:105820000C9808B1868807E02868016809698847EC
:1058300000F024F900280DD1B9F1000F00D13C444B
:105840000C9830B102F05DFE07B2B9F1010F02D041
:1058500002E000278EE0E41B0D9868B12868B9F1DA
:10586000000F0168CB6BDDE90C2102D09847241AA8
:1058700005E09847044406E0B9F1000F03D0B9F100
:10588000010F06D00CE01298211A1198814278DCA1
:1058900006E01398E1190144BAF90000814270DB77
:1058A0000C98427B817902F0080241EA42110A1900
:1058B00090F90910BAF900000A4482425ADB0A1929
:1058C00011998A4256DAA0424FF0000B02DD001B0C
:1058D0001FFA80FB0020009028680168C96A884789
:1058E0000C9B01465A7B187A02F0200C40EACC004F
:1058F0005FEA426C01D5A0F50070091A18980844B7
:1059000000B20190BAF9021081420EDDDB7902F09B
:10591000100243EA0212024401E047E042E08A42F8
:1059200028DB081A80B2CDE9000128680168896B7C
:1059300088470DF1240CAB79AA7B9DF840108CE8C8
:105940000E000C9BA9680E9A0891CDE904A300995A
:1059500004EB0B03CDE906201BB20093CDE902B1A5
:1059600017980268436815980068D0F840C0DDE9D0
:105970001501E04708F101000F9980468842FFF6C3
:1059800022AF9EB10A2E0DD008F1010407E026983F
:105990004946FEF727FD48B10A2803D0641C279822
:1059A0008442F4DB002019B0BDE8F08F0120FAE753
:1059B000202905D0A1F500500B3801D000207047F8
:1059C0000120704770B504460020DDE904562080B0
:1059D000616023726672E56022826082A082E0824A
:1059E00020836083A083A077286841692846884780
:1059F000050019D0E0680168CA6829469047064644
:105A000002F07FFDA083607A04280DD1E068324661
:105A10000168CB6B294698470546304602F071FD78
:105A2000A18B28440844A083204670BD70B514465D
:105A30000D462BB1012B07D0022B09D0032B0CD024
:105A4000B0F90000084470BD00F197FB001B02E0B4
:105A500000F193FB401B401E70BDB0F900001044E4
:105A600070BD00EB1020401CC0F30720704710B53C
:105A7000029C018042808380C48010BDA0F57E41DD
:105A8000FF3905D0A0F500510B3901D00020704737
:105A90000120704770470000014901607047000015
:105AA0006081100818B10021020C02D003E0202010
:105AB000704710210004020E01D100020831020FCC
:105AC00001D10001091D820F01D18000891C00282D
:105AD00000DB491C08467047000440EA01201043DF
